{
  "_format": "hh-sol-artifact-1",
  "contractName": "DappFund",
  "sourceName": "contracts/DappFund.sol",
  "abi": [
    {
      "inputs": [
        {
          "internalType": "uint256",
          "name": "_charityTax",
          "type": "uint256"
        }
      ],
      "stateMutability": "nonpayable",
      "type": "constructor"
    },
    {
      "anonymous": false,
      "inputs": [
        {
          "indexed": true,
          "internalType": "address",
          "name": "previousOwner",
          "type": "address"
        },
        {
          "indexed": true,
          "internalType": "address",
          "name": "newOwner",
          "type": "address"
        }
      ],
      "name": "OwnershipTransferred",
      "type": "event"
    },
    {
      "anonymous": false,
      "inputs": [
        {
          "indexed": true,
          "internalType": "bytes32",
          "name": "role",
          "type": "bytes32"
        },
        {
          "indexed": true,
          "internalType": "bytes32",
          "name": "previousAdminRole",
          "type": "bytes32"
        },
        {
          "indexed": true,
          "internalType": "bytes32",
          "name": "newAdminRole",
          "type": "bytes32"
        }
      ],
      "name": "RoleAdminChanged",
      "type": "event"
    },
    {
      "anonymous": false,
      "inputs": [
        {
          "indexed": true,
          "internalType": "bytes32",
          "name": "role",
          "type": "bytes32"
        },
        {
          "indexed": true,
          "internalType": "address",
          "name": "account",
          "type": "address"
        },
        {
          "indexed": true,
          "internalType": "address",
          "name": "sender",
          "type": "address"
        }
      ],
      "name": "RoleGranted",
      "type": "event"
    },
    {
      "anonymous": false,
      "inputs": [
        {
          "indexed": true,
          "internalType": "bytes32",
          "name": "role",
          "type": "bytes32"
        },
        {
          "indexed": true,
          "internalType": "address",
          "name": "account",
          "type": "address"
        },
        {
          "indexed": true,
          "internalType": "address",
          "name": "sender",
          "type": "address"
        }
      ],
      "name": "RoleRevoked",
      "type": "event"
    },
    {
      "inputs": [],
      "name": "DEFAULT_ADMIN_ROLE",
      "outputs": [
        {
          "internalType": "bytes32",
          "name": "",
          "type": "bytes32"
        }
      ],
      "stateMutability": "view",
      "type": "function"
    },
    {
      "inputs": [
        {
          "internalType": "uint256",
          "name": "_taxPct",
          "type": "uint256"
        }
      ],
      "name": "changeTax",
      "outputs": [],
      "stateMutability": "nonpayable",
      "type": "function"
    },
    {
      "inputs": [
        {
          "internalType": "uint256",
          "name": "",
          "type": "uint256"
        }
      ],
      "name": "charityExist",
      "outputs": [
        {
          "internalType": "bool",
          "name": "",
          "type": "bool"
        }
      ],
      "stateMutability": "view",
      "type": "function"
    },
    {
      "inputs": [],
      "name": "charityTax",
      "outputs": [
        {
          "internalType": "uint256",
          "name": "",
          "type": "uint256"
        }
      ],
      "stateMutability": "view",
      "type": "function"
    },
    {
      "inputs": [
        {
          "internalType": "string",
          "name": "name",
          "type": "string"
        },
        {
          "internalType": "string",
          "name": "fullname",
          "type": "string"
        },
        {
          "internalType": "string",
          "name": "profile",
          "type": "string"
        },
        {
          "internalType": "string",
          "name": "description",
          "type": "string"
        },
        {
          "internalType": "string",
          "name": "image",
          "type": "string"
        },
        {
          "internalType": "uint256",
          "name": "amount",
          "type": "uint256"
        }
      ],
      "name": "createCharity",
      "outputs": [],
      "stateMutability": "nonpayable",
      "type": "function"
    },
    {
      "inputs": [
        {
          "internalType": "uint256",
          "name": "id",
          "type": "uint256"
        }
      ],
      "name": "deleteCharity",
      "outputs": [],
      "stateMutability": "nonpayable",
      "type": "function"
    },
    {
      "inputs": [
        {
          "internalType": "uint256",
          "name": "id",
          "type": "uint256"
        },
        {
          "internalType": "string",
          "name": "fullname",
          "type": "string"
        },
        {
          "internalType": "string",
          "name": "comment",
          "type": "string"
        }
      ],
      "name": "donate",
      "outputs": [],
      "stateMutability": "payable",
      "type": "function"
    },
    {
      "inputs": [],
      "name": "getCharities",
      "outputs": [
        {
          "components": [
            {
              "internalType": "uint256",
              "name": "id",
              "type": "uint256"
            },
            {
              "internalType": "address",
              "name": "owner",
              "type": "address"
            },
            {
              "internalType": "string",
              "name": "name",
              "type": "string"
            },
            {
              "internalType": "string",
              "name": "fullname",
              "type": "string"
            },
            {
              "internalType": "string",
              "name": "description",
              "type": "string"
            },
            {
              "internalType": "string",
              "name": "image",
              "type": "string"
            },
            {
              "internalType": "string",
              "name": "profile",
              "type": "string"
            },
            {
              "internalType": "uint256",
              "name": "amount",
              "type": "uint256"
            },
            {
              "internalType": "uint256",
              "name": "donations",
              "type": "uint256"
            },
            {
              "internalType": "uint256",
              "name": "raised",
              "type": "uint256"
            },
            {
              "internalType": "uint256",
              "name": "timestamp",
              "type": "uint256"
            },
            {
              "internalType": "bool",
              "name": "deleted",
              "type": "bool"
            },
            {
              "internalType": "bool",
              "name": "banned",
              "type": "bool"
            }
          ],
          "internalType": "struct DappFund.CharityStruct[]",
          "name": "Charities",
          "type": "tuple[]"
        }
      ],
      "stateMutability": "view",
      "type": "function"
    },
    {
      "inputs": [
        {
          "internalType": "uint256",
          "name": "id",
          "type": "uint256"
        }
      ],
      "name": "getCharity",
      "outputs": [
        {
          "components": [
            {
              "internalType": "uint256",
              "name": "id",
              "type": "uint256"
            },
            {
              "internalType": "address",
              "name": "owner",
              "type": "address"
            },
            {
              "internalType": "string",
              "name": "name",
              "type": "string"
            },
            {
              "internalType": "string",
              "name": "fullname",
              "type": "string"
            },
            {
              "internalType": "string",
              "name": "description",
              "type": "string"
            },
            {
              "internalType": "string",
              "name": "image",
              "type": "string"
            },
            {
              "internalType": "string",
              "name": "profile",
              "type": "string"
            },
            {
              "internalType": "uint256",
              "name": "amount",
              "type": "uint256"
            },
            {
              "internalType": "uint256",
              "name": "donations",
              "type": "uint256"
            },
            {
              "internalType": "uint256",
              "name": "raised",
              "type": "uint256"
            },
            {
              "internalType": "uint256",
              "name": "timestamp",
              "type": "uint256"
            },
            {
              "internalType": "bool",
              "name": "deleted",
              "type": "bool"
            },
            {
              "internalType": "bool",
              "name": "banned",
              "type": "bool"
            }
          ],
          "internalType": "struct DappFund.CharityStruct",
          "name": "",
          "type": "tuple"
        }
      ],
      "stateMutability": "view",
      "type": "function"
    },
    {
      "inputs": [],
      "name": "getMyCharities",
      "outputs": [
        {
          "components": [
            {
              "internalType": "uint256",
              "name": "id",
              "type": "uint256"
            },
            {
              "internalType": "address",
              "name": "owner",
              "type": "address"
            },
            {
              "internalType": "string",
              "name": "name",
              "type": "string"
            },
            {
              "internalType": "string",
              "name": "fullname",
              "type": "string"
            },
            {
              "internalType": "string",
              "name": "description",
              "type": "string"
            },
            {
              "internalType": "string",
              "name": "image",
              "type": "string"
            },
            {
              "internalType": "string",
              "name": "profile",
              "type": "string"
            },
            {
              "internalType": "uint256",
              "name": "amount",
              "type": "uint256"
            },
            {
              "internalType": "uint256",
              "name": "donations",
              "type": "uint256"
            },
            {
              "internalType": "uint256",
              "name": "raised",
              "type": "uint256"
            },
            {
              "internalType": "uint256",
              "name": "timestamp",
              "type": "uint256"
            },
            {
              "internalType": "bool",
              "name": "deleted",
              "type": "bool"
            },
            {
              "internalType": "bool",
              "name": "banned",
              "type": "bool"
            }
          ],
          "internalType": "struct DappFund.CharityStruct[]",
          "name": "Charities",
          "type": "tuple[]"
        }
      ],
      "stateMutability": "view",
      "type": "function"
    },
    {
      "inputs": [
        {
          "internalType": "bytes32",
          "name": "role",
          "type": "bytes32"
        }
      ],
      "name": "getRoleAdmin",
      "outputs": [
        {
          "internalType": "bytes32",
          "name": "",
          "type": "bytes32"
        }
      ],
      "stateMutability": "view",
      "type": "function"
    },
    {
      "inputs": [
        {
          "internalType": "uint256",
          "name": "id",
          "type": "uint256"
        }
      ],
      "name": "getSupports",
      "outputs": [
        {
          "components": [
            {
              "internalType": "uint256",
              "name": "id",
              "type": "uint256"
            },
            {
              "internalType": "uint256",
              "name": "cid",
              "type": "uint256"
            },
            {
              "internalType": "string",
              "name": "fullname",
              "type": "string"
            },
            {
              "internalType": "uint256",
              "name": "amount",
              "type": "uint256"
            },
            {
              "internalType": "uint256",
              "name": "timestamp",
              "type": "uint256"
            },
            {
              "internalType": "string",
              "name": "comment",
              "type": "string"
            },
            {
              "internalType": "address",
              "name": "supporter",
              "type": "address"
            }
          ],
          "internalType": "struct DappFund.SupportStruct[]",
          "name": "",
          "type": "tuple[]"
        }
      ],
      "stateMutability": "view",
      "type": "function"
    },
    {
      "inputs": [
        {
          "internalType": "bytes32",
          "name": "role",
          "type": "bytes32"
        },
        {
          "internalType": "address",
          "name": "account",
          "type": "address"
        }
      ],
      "name": "grantRole",
      "outputs": [],
      "stateMutability": "nonpayable",
      "type": "function"
    },
    {
      "inputs": [
        {
          "internalType": "bytes32",
          "name": "role",
          "type": "bytes32"
        },
        {
          "internalType": "address",
          "name": "account",
          "type": "address"
        }
      ],
      "name": "hasRole",
      "outputs": [
        {
          "internalType": "bool",
          "name": "",
          "type": "bool"
        }
      ],
      "stateMutability": "view",
      "type": "function"
    },
    {
      "inputs": [],
      "name": "owner",
      "outputs": [
        {
          "internalType": "address",
          "name": "",
          "type": "address"
        }
      ],
      "stateMutability": "view",
      "type": "function"
    },
    {
      "inputs": [],
      "name": "renounceOwnership",
      "outputs": [],
      "stateMutability": "nonpayable",
      "type": "function"
    },
    {
      "inputs": [
        {
          "internalType": "bytes32",
          "name": "role",
          "type": "bytes32"
        },
        {
          "internalType": "address",
          "name": "account",
          "type": "address"
        }
      ],
      "name": "renounceRole",
      "outputs": [],
      "stateMutability": "nonpayable",
      "type": "function"
    },
    {
      "inputs": [
        {
          "internalType": "bytes32",
          "name": "role",
          "type": "bytes32"
        },
        {
          "internalType": "address",
          "name": "account",
          "type": "address"
        }
      ],
      "name": "revokeRole",
      "outputs": [],
      "stateMutability": "nonpayable",
      "type": "function"
    },
    {
      "inputs": [
        {
          "internalType": "bytes4",
          "name": "interfaceId",
          "type": "bytes4"
        }
      ],
      "name": "supportsInterface",
      "outputs": [
        {
          "internalType": "bool",
          "name": "",
          "type": "bool"
        }
      ],
      "stateMutability": "view",
      "type": "function"
    },
    {
      "inputs": [
        {
          "internalType": "uint256",
          "name": "id",
          "type": "uint256"
        }
      ],
      "name": "toggleBan",
      "outputs": [],
      "stateMutability": "nonpayable",
      "type": "function"
    },
    {
      "inputs": [
        {
          "internalType": "address",
          "name": "newOwner",
          "type": "address"
        }
      ],
      "name": "transferOwnership",
      "outputs": [],
      "stateMutability": "nonpayable",
      "type": "function"
    },
    {
      "inputs": [
        {
          "internalType": "uint256",
          "name": "id",
          "type": "uint256"
        },
        {
          "internalType": "string",
          "name": "name",
          "type": "string"
        },
        {
          "internalType": "string",
          "name": "fullname",
          "type": "string"
        },
        {
          "internalType": "string",
          "name": "profile",
          "type": "string"
        },
        {
          "internalType": "string",
          "name": "description",
          "type": "string"
        },
        {
          "internalType": "string",
          "name": "image",
          "type": "string"
        },
        {
          "internalType": "uint256",
          "name": "amount",
          "type": "uint256"
        }
      ],
      "name": "updateCharity",
      "outputs": [],
      "stateMutability": "nonpayable",
      "type": "function"
    }
  ],
  "bytecode": "0x60806040523480156200001157600080fd5b5060405162002deb38038062002deb833981016040819052620000349162000098565b6200003f3362000048565b600455620000b2565b600080546001600160a01b038381166001600160a01b0319831681178455604051919092169283917f8be0079c531659141344cd1fd0a4f28419497f9722a3daafe3b4186f6b6457e09190a35050565b600060208284031215620000ab57600080fd5b5051919050565b612d2980620000c26000396000f3fe6080604052600436106101355760003560e01c806391d14854116100ab578063cdb532b91161006f578063cdb532b91461036c578063d547741f1461038c578063ed572471146103ac578063f2ccf839146103cc578063f2fde38b146103df578063fd67db81146103ff57600080fd5b806391d14854146102ba57806395024734146102da578063a217fddf14610307578063ac3238c11461031c578063b48c06dd1461033c57600080fd5b80633d784783116100fd5780633d784783146102105780633e45c8af1461022657806348112c6f146102465780635866192914610268578063715018a61461027d5780638da5cb5b1461029257600080fd5b806301ffc9a71461013a578063063165a31461016f578063248a9ca3146101915780632f2ff15d146101d057806336568abe146101f0575b600080fd5b34801561014657600080fd5b5061015a610155366004612451565b61042c565b60405190151581526020015b60405180910390f35b34801561017b57600080fd5b5061018f61018a36600461251e565b610463565b005b34801561019d57600080fd5b506101c26101ac3660046125f8565b6000908152600160208190526040909120015490565b604051908152602001610166565b3480156101dc57600080fd5b5061018f6101eb36600461262d565b6107af565b3480156101fc57600080fd5b5061018f61020b36600461262d565b6107da565b34801561021c57600080fd5b506101c260045481565b34801561023257600080fd5b5061018f6102413660046125f8565b610858565b34801561025257600080fd5b5061025b6108c2565b604051610166919061279d565b34801561027457600080fd5b5061025b610db4565b34801561028957600080fd5b5061018f6112ea565b34801561029e57600080fd5b506000546040516001600160a01b039091168152602001610166565b3480156102c657600080fd5b5061015a6102d536600461262d565b6112fe565b3480156102e657600080fd5b506102fa6102f53660046125f8565b611329565b60405161016691906127ff565b34801561031357600080fd5b506101c2600081565b34801561032857600080fd5b5061018f6103373660046125f8565b6114fd565b34801561034857600080fd5b5061015a6103573660046125f8565b60076020526000908152604090205460ff1681565b34801561037857600080fd5b5061018f6103873660046125f8565b61155f565b34801561039857600080fd5b5061018f6103a736600461262d565b61160a565b3480156103b857600080fd5b5061018f6103c73660046128c5565b611630565b61018f6103da3660046129aa565b61191b565b3480156103eb57600080fd5b5061018f6103fa366004612a17565b611be5565b34801561040b57600080fd5b5061041f61041a3660046125f8565b611c5e565b6040516101669190612a32565b60006001600160e01b03198216637965db0b60e01b148061045d57506301ffc9a760e01b6001600160e01b03198316145b92915050565b60008651116104b05760405162461bcd60e51b81526020600482015260146024820152734e616d652063616e6e6f7420626520656d70747960601b60448201526064015b60405180910390fd5b60008551116104fc5760405162461bcd60e51b815260206004820152601860248201527746756c6c6e616d652063616e6e6f7420626520656d70747960401b60448201526064016104a7565b600083511161054d5760405162461bcd60e51b815260206004820152601b60248201527f4465736372697074696f6e2063616e6e6f7420626520656d707479000000000060448201526064016104a7565b60008451116105985760405162461bcd60e51b815260206004820152601760248201527650726f66696c652063616e6e6f7420626520656d70747960481b60448201526064016104a7565b60008251116105e15760405162461bcd60e51b8152602060048201526015602482015274496d6167652063616e6e6f7420626520656d70747960581b60448201526064016104a7565b600081116106295760405162461bcd60e51b8152602060048201526015602482015274416d6f756e742063616e6e6f74206265207a65726f60581b60448201526064016104a7565b610637600280546001019055565b61063f6123dc565b600254815233602082015260408101879052606081018690526080810184905260a0810183905260c0810185905260e0810182905261067c611fc9565b610140820152805160009081526005602090815260409182902083518155908301516001820180546001600160a01b0319166001600160a01b039092169190911790559082015182919060028201906106d59082612ac5565b50606082015160038201906106ea9082612ac5565b50608082015160048201906106ff9082612ac5565b5060a082015160058201906107149082612ac5565b5060c082015160068201906107299082612ac5565b5060e08201516007828101919091556101008084015160088401556101208401516009840155610140840151600a840155610160840151600b90930180546101809095015161ffff1990951693151561ff00191693909317931515029290921790559051600090815260209190915260409020805460ff19166001179055505050505050565b600082815260016020819052604090912001546107cb81611fe8565b6107d58383611ff2565b505050565b6001600160a01b038116331461084a5760405162461bcd60e51b815260206004820152602f60248201527f416363657373436f6e74726f6c3a2063616e206f6e6c792072656e6f756e636560448201526e103937b632b9903337b91039b2b63360891b60648201526084016104a7565b610854828261205d565b5050565b6108606120c4565b600081118015610871575060648111155b6108bd5760405162461bcd60e51b815260206004820152601f60248201527f50657263656e74206d757374206265206265747765656e2030202d203130300060448201526064016104a7565b600455565b6060600060015b6002548111610952576000818152600560205260409020600b015460ff1615801561090b57506000818152600560205260409020600b0154610100900460ff16155b801561092d575060008181526005602052604090206007810154600990910154105b15610940578161093c81612b9b565b9250505b8061094a81612b9b565b9150506108c9565b508067ffffffffffffffff81111561096c5761096c61247b565b6040519080825280602002602001820160405280156109a557816020015b6109926123dc565b81526020019060019003908161098a5790505b509150600060015b6002548111610dae576000818152600560205260409020600b015460ff161580156109ef57506000818152600560205260409020600b0154610100900460ff16155b8015610a11575060008181526005602052604090206007810154600990910154105b15610d9c5760008181526005602090815260409182902082516101a0810184528154815260018201546001600160a01b0316928101929092526002810180549293919291840191610a6190612a45565b80601f0160208091040260200160405190810160405280929190818152602001828054610a8d90612a45565b8015610ada5780601f10610aaf57610100808354040283529160200191610ada565b820191906000526020600020905b815481529060010190602001808311610abd57829003601f168201915b50505050508152602001600382018054610af390612a45565b80601f0160208091040260200160405190810160405280929190818152602001828054610b1f90612a45565b8015610b6c5780601f10610b4157610100808354040283529160200191610b6c565b820191906000526020600020905b815481529060010190602001808311610b4f57829003601f168201915b50505050508152602001600482018054610b8590612a45565b80601f0160208091040260200160405190810160405280929190818152602001828054610bb190612a45565b8015610bfe5780601f10610bd357610100808354040283529160200191610bfe565b820191906000526020600020905b815481529060010190602001808311610be157829003601f168201915b50505050508152602001600582018054610c1790612a45565b80601f0160208091040260200160405190810160405280929190818152602001828054610c4390612a45565b8015610c905780601f10610c6557610100808354040283529160200191610c90565b820191906000526020600020905b815481529060010190602001808311610c7357829003601f168201915b50505050508152602001600682018054610ca990612a45565b80601f0160208091040260200160405190810160405280929190818152602001828054610cd590612a45565b8015610d225780601f10610cf757610100808354040283529160200191610d22565b820191906000526020600020905b815481529060010190602001808311610d0557829003601f168201915b5050509183525050600782015460208201526008820154604082015260098201546060820152600a8201546080820152600b9091015460ff808216151560a084015261010090910416151560c0909101528483610d7e81612b9b565b945081518110610d9057610d90612bb4565b60200260200101819052505b80610da681612b9b565b9150506109ad565b50505090565b6060600060015b6002548111610e69576000818152600560205260409020600b015460ff16158015610dfd57506000818152600560205260409020600b0154610100900460ff16155b8015610e1f575060008181526005602052604090206007810154600990910154105b8015610e4457506000818152600560205260409020600101546001600160a01b031633145b15610e575781610e5381612b9b565b9250505b80610e6181612b9b565b915050610dbb565b508067ffffffffffffffff811115610e8357610e8361247b565b604051908082528060200260200182016040528015610ebc57816020015b610ea96123dc565b815260200190600190039081610ea15790505b509150600060015b6002548111610dae576000818152600560205260409020600b015460ff16158015610f0657506000818152600560205260409020600b0154610100900460ff16155b8015610f28575060008181526005602052604090206007810154600990910154105b8015610f4d57506000818152600560205260409020600101546001600160a01b031633145b156112d85760008181526005602090815260409182902082516101a0810184528154815260018201546001600160a01b0316928101929092526002810180549293919291840191610f9d90612a45565b80601f0160208091040260200160405190810160405280929190818152602001828054610fc990612a45565b80156110165780601f10610feb57610100808354040283529160200191611016565b820191906000526020600020905b815481529060010190602001808311610ff957829003601f168201915b5050505050815260200160038201805461102f90612a45565b80601f016020809104026020016040519081016040528092919081815260200182805461105b90612a45565b80156110a85780601f1061107d576101008083540402835291602001916110a8565b820191906000526020600020905b81548152906001019060200180831161108b57829003601f168201915b505050505081526020016004820180546110c190612a45565b80601f01602080910402602001604051908101604052809291908181526020018280546110ed90612a45565b801561113a5780601f1061110f5761010080835404028352916020019161113a565b820191906000526020600020905b81548152906001019060200180831161111d57829003601f168201915b5050505050815260200160058201805461115390612a45565b80601f016020809104026020016040519081016040528092919081815260200182805461117f90612a45565b80156111cc5780601f106111a1576101008083540402835291602001916111cc565b820191906000526020600020905b8154815290600101906020018083116111af57829003601f168201915b505050505081526020016006820180546111e590612a45565b80601f016020809104026020016040519081016040528092919081815260200182805461121190612a45565b801561125e5780601f106112335761010080835404028352916020019161125e565b820191906000526020600020905b81548152906001019060200180831161124157829003601f168201915b5050509183525050600782015460208201526008820154604082015260098201546060820152600a8201546080820152600b9091015460ff808216151560a084015261010090910416151560c09091015284836112ba81612b9b565b9450815181106112cc576112cc612bb4565b60200260200101819052505b806112e281612b9b565b915050610ec4565b6112f26120c4565b6112fc600061211e565b565b60009182526001602090815260408084206001600160a01b0393909316845291905290205460ff1690565b606060066000838152602001908152602001600020805480602002602001604051908101604052809291908181526020016000905b828210156114f257838290600052602060002090600702016040518060e001604052908160008201548152602001600182015481526020016002820180546113a590612a45565b80601f01602080910402602001604051908101604052809291908181526020018280546113d190612a45565b801561141e5780601f106113f35761010080835404028352916020019161141e565b820191906000526020600020905b81548152906001019060200180831161140157829003601f168201915b50505050508152602001600382015481526020016004820154815260200160058201805461144b90612a45565b80601f016020809104026020016040519081016040528092919081815260200182805461147790612a45565b80156114c45780601f10611499576101008083540402835291602001916114c4565b820191906000526020600020905b8154815290600101906020018083116114a757829003601f168201915b5050509183525050600691909101546001600160a01b0316602091820152908252600192909201910161135e565b505050509050919050565b6115056120c4565b60008181526007602052604090205460ff166115335760405162461bcd60e51b81526004016104a790612bca565b6000908152600560205260409020600b01805461ff001981166101009182900460ff1615909102179055565b60008181526007602052604090205460ff1661158d5760405162461bcd60e51b81526004016104a790612bca565b6000818152600560205260409020600101546001600160a01b031633146115ec5760405162461bcd60e51b8152602060048201526013602482015272556e617574686f72697a656420456e7469747960681b60448201526064016104a7565b6000908152600560205260409020600b01805460ff19166001179055565b6000828152600160208190526040909120015461162681611fe8565b6107d5838361205d565b60008781526007602052604090205460ff1661165e5760405162461bcd60e51b81526004016104a790612bca565b6000878152600560205260409020600101546001600160a01b031633146116bd5760405162461bcd60e51b8152602060048201526013602482015272556e617574686f72697a656420456e7469747960681b60448201526064016104a7565b60008651116117055760405162461bcd60e51b81526020600482015260146024820152734e616d652063616e6e6f7420626520656d70747960601b60448201526064016104a7565b60008551116117515760405162461bcd60e51b815260206004820152601860248201527746756c6c6e616d652063616e6e6f7420626520656d70747960401b60448201526064016104a7565b60008351116117a25760405162461bcd60e51b815260206004820152601b60248201527f4465736372697074696f6e2063616e6e6f7420626520656d707479000000000060448201526064016104a7565b60008451116117ed5760405162461bcd60e51b815260206004820152601760248201527650726f66696c652063616e6e6f7420626520656d70747960481b60448201526064016104a7565b60008251116118365760405162461bcd60e51b8152602060048201526015602482015274496d6167652063616e6e6f7420626520656d70747960581b60448201526064016104a7565b6000811161187e5760405162461bcd60e51b8152602060048201526015602482015274416d6f756e742063616e6e6f74206265207a65726f60581b60448201526064016104a7565b60008781526005602052604090206002016118998782612ac5565b5060008781526005602052604090206003016118b58682612ac5565b506000878152600560208190526040909120016118d28382612ac5565b506000878152600560205260409020600781018290556006016118f58582612ac5565b5060008781526005602052604090206004016119118482612ac5565b5050505050505050565b60008381526007602052604090205460ff166119495760405162461bcd60e51b81526004016104a790612bca565b600034116119995760405162461bcd60e51b815260206004820152601760248201527f446f6e6174696f6e2063616e6e6f74206265207a65726f00000000000000000060448201526064016104a7565b60008381526005602052604090206007810154600990910154106119ff5760405162461bcd60e51b815260206004820152601860248201527f43686172697479206275646765742066756c66696c6c6564000000000000000060448201526064016104a7565b611a0d600380546001019055565b611a566040518060e0016040528060008152602001600081526020016060815260200160008152602001600081526020016060815260200160006001600160a01b031681525090565b6003548152602081018490526040810183905234606082015260a08101829052611a7e611fc9565b6080820152600084815260066020908152604080832080546001818101835591855293839020855160079095020193845591840151918301919091558201518291906002820190611acf9082612ac5565b50606082015160038201556080820151600482015560a08201516005820190611af89082612ac5565b5060c09190910151600690910180546001600160a01b0319166001600160a01b0390921691909117905560008481526005602052604081206009018054349290611b43908490612bf5565b90915550506000848152600560205260408120600801805460019290611b6a908490612bf5565b9091555050600454600090606490611b829034612c08565b611b8c9190612c1f565b90506000611b9a8234612c41565b600087815260056020526040902060010154909150611bc2906001600160a01b03168261216e565b611bdd611bd76000546001600160a01b031690565b8361216e565b505050505050565b611bed6120c4565b6001600160a01b038116611c525760405162461bcd60e51b815260206004820152602660248201527f4f776e61626c653a206e6577206f776e657220697320746865207a65726f206160448201526564647265737360d01b60648201526084016104a7565b611c5b8161211e565b50565b611c666123dc565b60008281526005602090815260409182902082516101a0810184528154815260018201546001600160a01b0316928101929092526002810180549293919291840191611cb190612a45565b80601f0160208091040260200160405190810160405280929190818152602001828054611cdd90612a45565b8015611d2a5780601f10611cff57610100808354040283529160200191611d2a565b820191906000526020600020905b815481529060010190602001808311611d0d57829003601f168201915b50505050508152602001600382018054611d4390612a45565b80601f0160208091040260200160405190810160405280929190818152602001828054611d6f90612a45565b8015611dbc5780601f10611d9157610100808354040283529160200191611dbc565b820191906000526020600020905b815481529060010190602001808311611d9f57829003601f168201915b50505050508152602001600482018054611dd590612a45565b80601f0160208091040260200160405190810160405280929190818152602001828054611e0190612a45565b8015611e4e5780601f10611e2357610100808354040283529160200191611e4e565b820191906000526020600020905b815481529060010190602001808311611e3157829003601f168201915b50505050508152602001600582018054611e6790612a45565b80601f0160208091040260200160405190810160405280929190818152602001828054611e9390612a45565b8015611ee05780601f10611eb557610100808354040283529160200191611ee0565b820191906000526020600020905b815481529060010190602001808311611ec357829003601f168201915b50505050508152602001600682018054611ef990612a45565b80601f0160208091040260200160405190810160405280929190818152602001828054611f2590612a45565b8015611f725780601f10611f4757610100808354040283529160200191611f72565b820191906000526020600020905b815481529060010190602001808311611f5557829003601f168201915b5050509183525050600782015460208201526008820154604082015260098201546060820152600a8201546080820152600b9091015460ff808216151560a084015261010090910416151560c09091015292915050565b6000611fd7426103e8612c08565b611fe3906103e8612bf5565b905090565b611c5b81336121ce565b611ffc82826112fe565b6108545760008281526001602081815260408084206001600160a01b0386168086529252808420805460ff19169093179092559051339285917f2f8788117e7eff1d82e926ec794901d17c78024a50270940304540a733656f0d9190a45050565b61206782826112fe565b156108545760008281526001602090815260408083206001600160a01b0385168085529252808320805460ff1916905551339285917ff6391f5c32d9c69d2a47ea670b442974b53935d1edc7fd64eb21e047a839171b9190a45050565b6000546001600160a01b031633146112fc5760405162461bcd60e51b815260206004820181905260248201527f4f776e61626c653a2063616c6c6572206973206e6f7420746865206f776e657260448201526064016104a7565b600080546001600160a01b038381166001600160a01b0319831681178455604051919092169283917f8be0079c531659141344cd1fd0a4f28419497f9722a3daafe3b4186f6b6457e09190a35050565b6000826001600160a01b03168260405160006040518083038185875af1925050503d80600081146121bb576040519150601f19603f3d011682016040523d82523d6000602084013e6121c0565b606091505b50509050806107d557600080fd5b6121d882826112fe565b610854576121e581612227565b6121f0836020612239565b604051602001612201929190612c54565b60408051601f198184030181529082905262461bcd60e51b82526104a791600401612cc9565b606061045d6001600160a01b03831660145b60606000612248836002612c08565b612253906002612bf5565b67ffffffffffffffff81111561226b5761226b61247b565b6040519080825280601f01601f191660200182016040528015612295576020820181803683370190505b509050600360fc1b816000815181106122b0576122b0612bb4565b60200101906001600160f81b031916908160001a905350600f60fb1b816001815181106122df576122df612bb4565b60200101906001600160f81b031916908160001a9053506000612303846002612c08565b61230e906001612bf5565b90505b6001811115612386576f181899199a1a9b1b9c1cb0b131b232b360811b85600f166010811061234257612342612bb4565b1a60f81b82828151811061235857612358612bb4565b60200101906001600160f81b031916908160001a90535060049490941c9361237f81612cdc565b9050612311565b5083156123d55760405162461bcd60e51b815260206004820181905260248201527f537472696e67733a20686578206c656e67746820696e73756666696369656e7460448201526064016104a7565b9392505050565b604051806101a001604052806000815260200160006001600160a01b031681526020016060815260200160608152602001606081526020016060815260200160608152602001600081526020016000815260200160008152602001600081526020016000151581526020016000151581525090565b60006020828403121561246357600080fd5b81356001600160e01b0319811681146123d557600080fd5b634e487b7160e01b600052604160045260246000fd5b600082601f8301126124a257600080fd5b813567ffffffffffffffff808211156124bd576124bd61247b565b604051601f8301601f19908116603f011681019082821181831017156124e5576124e561247b565b816040528381528660208588010111156124fe57600080fd5b836020870160208301376000602085830101528094505050505092915050565b60008060008060008060c0878903121561253757600080fd5b863567ffffffffffffffff8082111561254f57600080fd5b61255b8a838b01612491565b9750602089013591508082111561257157600080fd5b61257d8a838b01612491565b9650604089013591508082111561259357600080fd5b61259f8a838b01612491565b955060608901359150808211156125b557600080fd5b6125c18a838b01612491565b945060808901359150808211156125d757600080fd5b506125e489828a01612491565b92505060a087013590509295509295509295565b60006020828403121561260a57600080fd5b5035919050565b80356001600160a01b038116811461262857600080fd5b919050565b6000806040838503121561264057600080fd5b8235915061265060208401612611565b90509250929050565b60005b8381101561267457818101518382015260200161265c565b50506000910152565b60008151808452612695816020860160208601612659565b601f01601f19169290920160200192915050565b60006101a08251845260208301516126cc60208601826001600160a01b03169052565b5060408301518160408601526126e48286018261267d565b915050606083015184820360608601526126fe828261267d565b91505060808301518482036080860152612718828261267d565b91505060a083015184820360a0860152612732828261267d565b91505060c083015184820360c086015261274c828261267d565b60e08581015190870152610100808601519087015261012080860151908701526101408086015190870152610160808601511515908701526101809485015115159490950193909352509192915050565b6000602080830181845280855180835260408601915060408160051b870101925083870160005b828110156127f257603f198886030184526127e08583516126a9565b945092850192908501906001016127c4565b5092979650505050505050565b60006020808301818452808551808352604092508286019150828160051b87010184880160005b838110156128b757603f19898403018552815160e081518552888201518986015287820151818987015261285c8287018261267d565b9150506060808301518187015250608080830151818701525060a0808301518683038288015261288c838261267d565b60c0948501516001600160a01b03169790940196909652505094870194925090860190600101612826565b509098975050505050505050565b600080600080600080600060e0888a0312156128e057600080fd5b87359650602088013567ffffffffffffffff808211156128ff57600080fd5b61290b8b838c01612491565b975060408a013591508082111561292157600080fd5b61292d8b838c01612491565b965060608a013591508082111561294357600080fd5b61294f8b838c01612491565b955060808a013591508082111561296557600080fd5b6129718b838c01612491565b945060a08a013591508082111561298757600080fd5b506129948a828b01612491565b92505060c0880135905092959891949750929550565b6000806000606084860312156129bf57600080fd5b83359250602084013567ffffffffffffffff808211156129de57600080fd5b6129ea87838801612491565b93506040860135915080821115612a0057600080fd5b50612a0d86828701612491565b9150509250925092565b600060208284031215612a2957600080fd5b6123d582612611565b6020815260006123d560208301846126a9565b600181811c90821680612a5957607f821691505b602082108103612a7957634e487b7160e01b600052602260045260246000fd5b50919050565b601f8211156107d557600081815260208120601f850160051c81016020861015612aa65750805b601f850160051c820191505b81811015611bdd57828155600101612ab2565b815167ffffffffffffffff811115612adf57612adf61247b565b612af381612aed8454612a45565b84612a7f565b602080601f831160018114612b285760008415612b105750858301515b600019600386901b1c1916600185901b178555611bdd565b600085815260208120601f198616915b82811015612b5757888601518255948401946001909101908401612b38565b5085821015612b755787850151600019600388901b60f8161c191681555b5050505050600190811b01905550565b634e487b7160e01b600052601160045260246000fd5b600060018201612bad57612bad612b85565b5060010190565b634e487b7160e01b600052603260045260246000fd5b60208082526011908201527010da185c9a5d1e48139bdd08119bdd5b99607a1b604082015260600190565b8082018082111561045d5761045d612b85565b808202811582820484141761045d5761045d612b85565b600082612c3c57634e487b7160e01b600052601260045260246000fd5b500490565b8181038181111561045d5761045d612b85565b7f416363657373436f6e74726f6c3a206163636f756e7420000000000000000000815260008351612c8c816017850160208801612659565b7001034b99036b4b9b9b4b733903937b6329607d1b6017918401918201528351612cbd816028840160208801612659565b01602801949350505050565b6020815260006123d5602083018461267d565b600081612ceb57612ceb612b85565b50600019019056fea2646970667358221220abb8b43bd2367d21101ee91670fc0bf94a0973b907c959178bad68c70e53823764736f6c63430008110033",
  "linkReferences": {},
  "deployedLinkReferences": {}
}