{
  "_format": "hh-sol-artifact-1",
  "contractName": "DappFund",
  "sourceName": "contracts/DappFund.sol",
  "abi": [
    {
      "inputs": [
        {
          "internalType": "uint256",
          "name": "_charityTax",
          "type": "uint256"
        }
      ],
      "stateMutability": "nonpayable",
      "type": "constructor"
    },
    {
      "anonymous": false,
      "inputs": [
        {
          "indexed": true,
          "internalType": "address",
          "name": "previousOwner",
          "type": "address"
        },
        {
          "indexed": true,
          "internalType": "address",
          "name": "newOwner",
          "type": "address"
        }
      ],
      "name": "OwnershipTransferred",
      "type": "event"
    },
    {
      "anonymous": false,
      "inputs": [
        {
          "indexed": true,
          "internalType": "bytes32",
          "name": "role",
          "type": "bytes32"
        },
        {
          "indexed": true,
          "internalType": "bytes32",
          "name": "previousAdminRole",
          "type": "bytes32"
        },
        {
          "indexed": true,
          "internalType": "bytes32",
          "name": "newAdminRole",
          "type": "bytes32"
        }
      ],
      "name": "RoleAdminChanged",
      "type": "event"
    },
    {
      "anonymous": false,
      "inputs": [
        {
          "indexed": true,
          "internalType": "bytes32",
          "name": "role",
          "type": "bytes32"
        },
        {
          "indexed": true,
          "internalType": "address",
          "name": "account",
          "type": "address"
        },
        {
          "indexed": true,
          "internalType": "address",
          "name": "sender",
          "type": "address"
        }
      ],
      "name": "RoleGranted",
      "type": "event"
    },
    {
      "anonymous": false,
      "inputs": [
        {
          "indexed": true,
          "internalType": "bytes32",
          "name": "role",
          "type": "bytes32"
        },
        {
          "indexed": true,
          "internalType": "address",
          "name": "account",
          "type": "address"
        },
        {
          "indexed": true,
          "internalType": "address",
          "name": "sender",
          "type": "address"
        }
      ],
      "name": "RoleRevoked",
      "type": "event"
    },
    {
      "inputs": [],
      "name": "DEFAULT_ADMIN_ROLE",
      "outputs": [
        {
          "internalType": "bytes32",
          "name": "",
          "type": "bytes32"
        }
      ],
      "stateMutability": "view",
      "type": "function"
    },
    {
      "inputs": [
        {
          "internalType": "uint256",
          "name": "_taxPct",
          "type": "uint256"
        }
      ],
      "name": "changeTax",
      "outputs": [],
      "stateMutability": "nonpayable",
      "type": "function"
    },
    {
      "inputs": [
        {
          "internalType": "uint256",
          "name": "",
          "type": "uint256"
        }
      ],
      "name": "charityExist",
      "outputs": [
        {
          "internalType": "bool",
          "name": "",
          "type": "bool"
        }
      ],
      "stateMutability": "view",
      "type": "function"
    },
    {
      "inputs": [],
      "name": "charityTax",
      "outputs": [
        {
          "internalType": "uint256",
          "name": "",
          "type": "uint256"
        }
      ],
      "stateMutability": "view",
      "type": "function"
    },
    {
      "inputs": [
        {
          "internalType": "string",
          "name": "name",
          "type": "string"
        },
        {
          "internalType": "string",
          "name": "profile",
          "type": "string"
        },
        {
          "internalType": "string",
          "name": "description",
          "type": "string"
        },
        {
          "internalType": "string",
          "name": "image",
          "type": "string"
        },
        {
          "internalType": "uint256",
          "name": "amount",
          "type": "uint256"
        }
      ],
      "name": "createCharity",
      "outputs": [],
      "stateMutability": "nonpayable",
      "type": "function"
    },
    {
      "inputs": [
        {
          "internalType": "uint256",
          "name": "id",
          "type": "uint256"
        }
      ],
      "name": "deleteProject",
      "outputs": [],
      "stateMutability": "nonpayable",
      "type": "function"
    },
    {
      "inputs": [
        {
          "internalType": "uint256",
          "name": "id",
          "type": "uint256"
        },
        {
          "internalType": "string",
          "name": "name",
          "type": "string"
        },
        {
          "internalType": "string",
          "name": "comment",
          "type": "string"
        }
      ],
      "name": "donate",
      "outputs": [],
      "stateMutability": "payable",
      "type": "function"
    },
    {
      "inputs": [],
      "name": "getCharities",
      "outputs": [
        {
          "components": [
            {
              "internalType": "uint256",
              "name": "id",
              "type": "uint256"
            },
            {
              "internalType": "address",
              "name": "owner",
              "type": "address"
            },
            {
              "internalType": "string",
              "name": "name",
              "type": "string"
            },
            {
              "internalType": "string",
              "name": "fullname",
              "type": "string"
            },
            {
              "internalType": "string",
              "name": "description",
              "type": "string"
            },
            {
              "internalType": "string",
              "name": "image",
              "type": "string"
            },
            {
              "internalType": "string",
              "name": "profile",
              "type": "string"
            },
            {
              "internalType": "uint256",
              "name": "amount",
              "type": "uint256"
            },
            {
              "internalType": "uint256",
              "name": "donations",
              "type": "uint256"
            },
            {
              "internalType": "uint256",
              "name": "raised",
              "type": "uint256"
            },
            {
              "internalType": "uint256",
              "name": "timestamp",
              "type": "uint256"
            },
            {
              "internalType": "bool",
              "name": "deleted",
              "type": "bool"
            },
            {
              "internalType": "bool",
              "name": "banned",
              "type": "bool"
            }
          ],
          "internalType": "struct DappFund.CharityStruct[]",
          "name": "Charities",
          "type": "tuple[]"
        }
      ],
      "stateMutability": "view",
      "type": "function"
    },
    {
      "inputs": [
        {
          "internalType": "uint256",
          "name": "id",
          "type": "uint256"
        }
      ],
      "name": "getCharity",
      "outputs": [
        {
          "components": [
            {
              "internalType": "uint256",
              "name": "id",
              "type": "uint256"
            },
            {
              "internalType": "address",
              "name": "owner",
              "type": "address"
            },
            {
              "internalType": "string",
              "name": "name",
              "type": "string"
            },
            {
              "internalType": "string",
              "name": "fullname",
              "type": "string"
            },
            {
              "internalType": "string",
              "name": "description",
              "type": "string"
            },
            {
              "internalType": "string",
              "name": "image",
              "type": "string"
            },
            {
              "internalType": "string",
              "name": "profile",
              "type": "string"
            },
            {
              "internalType": "uint256",
              "name": "amount",
              "type": "uint256"
            },
            {
              "internalType": "uint256",
              "name": "donations",
              "type": "uint256"
            },
            {
              "internalType": "uint256",
              "name": "raised",
              "type": "uint256"
            },
            {
              "internalType": "uint256",
              "name": "timestamp",
              "type": "uint256"
            },
            {
              "internalType": "bool",
              "name": "deleted",
              "type": "bool"
            },
            {
              "internalType": "bool",
              "name": "banned",
              "type": "bool"
            }
          ],
          "internalType": "struct DappFund.CharityStruct",
          "name": "",
          "type": "tuple"
        }
      ],
      "stateMutability": "view",
      "type": "function"
    },
    {
      "inputs": [
        {
          "internalType": "bytes32",
          "name": "role",
          "type": "bytes32"
        }
      ],
      "name": "getRoleAdmin",
      "outputs": [
        {
          "internalType": "bytes32",
          "name": "",
          "type": "bytes32"
        }
      ],
      "stateMutability": "view",
      "type": "function"
    },
    {
      "inputs": [
        {
          "internalType": "uint256",
          "name": "id",
          "type": "uint256"
        }
      ],
      "name": "getSupports",
      "outputs": [
        {
          "components": [
            {
              "internalType": "uint256",
              "name": "id",
              "type": "uint256"
            },
            {
              "internalType": "uint256",
              "name": "cid",
              "type": "uint256"
            },
            {
              "internalType": "string",
              "name": "name",
              "type": "string"
            },
            {
              "internalType": "uint256",
              "name": "amount",
              "type": "uint256"
            },
            {
              "internalType": "uint256",
              "name": "timestamp",
              "type": "uint256"
            },
            {
              "internalType": "string",
              "name": "comment",
              "type": "string"
            },
            {
              "internalType": "address",
              "name": "supporter",
              "type": "address"
            }
          ],
          "internalType": "struct DappFund.SupportStruct[]",
          "name": "",
          "type": "tuple[]"
        }
      ],
      "stateMutability": "view",
      "type": "function"
    },
    {
      "inputs": [
        {
          "internalType": "bytes32",
          "name": "role",
          "type": "bytes32"
        },
        {
          "internalType": "address",
          "name": "account",
          "type": "address"
        }
      ],
      "name": "grantRole",
      "outputs": [],
      "stateMutability": "nonpayable",
      "type": "function"
    },
    {
      "inputs": [
        {
          "internalType": "bytes32",
          "name": "role",
          "type": "bytes32"
        },
        {
          "internalType": "address",
          "name": "account",
          "type": "address"
        }
      ],
      "name": "hasRole",
      "outputs": [
        {
          "internalType": "bool",
          "name": "",
          "type": "bool"
        }
      ],
      "stateMutability": "view",
      "type": "function"
    },
    {
      "inputs": [],
      "name": "owner",
      "outputs": [
        {
          "internalType": "address",
          "name": "",
          "type": "address"
        }
      ],
      "stateMutability": "view",
      "type": "function"
    },
    {
      "inputs": [],
      "name": "renounceOwnership",
      "outputs": [],
      "stateMutability": "nonpayable",
      "type": "function"
    },
    {
      "inputs": [
        {
          "internalType": "bytes32",
          "name": "role",
          "type": "bytes32"
        },
        {
          "internalType": "address",
          "name": "account",
          "type": "address"
        }
      ],
      "name": "renounceRole",
      "outputs": [],
      "stateMutability": "nonpayable",
      "type": "function"
    },
    {
      "inputs": [
        {
          "internalType": "bytes32",
          "name": "role",
          "type": "bytes32"
        },
        {
          "internalType": "address",
          "name": "account",
          "type": "address"
        }
      ],
      "name": "revokeRole",
      "outputs": [],
      "stateMutability": "nonpayable",
      "type": "function"
    },
    {
      "inputs": [
        {
          "internalType": "bytes4",
          "name": "interfaceId",
          "type": "bytes4"
        }
      ],
      "name": "supportsInterface",
      "outputs": [
        {
          "internalType": "bool",
          "name": "",
          "type": "bool"
        }
      ],
      "stateMutability": "view",
      "type": "function"
    },
    {
      "inputs": [
        {
          "internalType": "uint256",
          "name": "id",
          "type": "uint256"
        }
      ],
      "name": "toggleBan",
      "outputs": [],
      "stateMutability": "nonpayable",
      "type": "function"
    },
    {
      "inputs": [
        {
          "internalType": "address",
          "name": "newOwner",
          "type": "address"
        }
      ],
      "name": "transferOwnership",
      "outputs": [],
      "stateMutability": "nonpayable",
      "type": "function"
    },
    {
      "inputs": [
        {
          "internalType": "uint256",
          "name": "id",
          "type": "uint256"
        },
        {
          "internalType": "string",
          "name": "name",
          "type": "string"
        },
        {
          "internalType": "string",
          "name": "profile",
          "type": "string"
        },
        {
          "internalType": "string",
          "name": "description",
          "type": "string"
        },
        {
          "internalType": "string",
          "name": "image",
          "type": "string"
        },
        {
          "internalType": "uint256",
          "name": "amount",
          "type": "uint256"
        }
      ],
      "name": "updateCharity",
      "outputs": [],
      "stateMutability": "nonpayable",
      "type": "function"
    }
  ],
  "bytecode": "0x60806040523480156200001157600080fd5b506040516200275e3803806200275e833981016040819052620000349162000098565b6200003f3362000048565b600455620000b2565b600080546001600160a01b038381166001600160a01b0319831681178455604051919092169283917f8be0079c531659141344cd1fd0a4f28419497f9722a3daafe3b4186f6b6457e09190a35050565b600060208284031215620000ab57600080fd5b5051919050565b61269c80620000c26000396000f3fe60806040526004361061012a5760003560e01c80638da5cb5b116100ab578063b48c06dd1161006f578063b48c06dd1461033c578063d547741f1461036c578063eb7945071461038c578063f2ccf839146103ac578063f2fde38b146103bf578063fd67db81146103df57600080fd5b80638da5cb5b1461029257806391d14854146102ba57806395024734146102da578063a217fddf14610307578063ac3238c11461031c57600080fd5b80633e45c8af116100f25780633e45c8af146101fb57806348112c6f1461021b5780634cd0cb281461023d5780634e0c71b81461025d578063715018a61461027d57600080fd5b806301ffc9a71461012f578063248a9ca3146101645780632f2ff15d146101a357806336568abe146101c55780633d784783146101e5575b600080fd5b34801561013b57600080fd5b5061014f61014a366004611e0f565b61040c565b60405190151581526020015b60405180910390f35b34801561017057600080fd5b5061019561017f366004611e39565b6000908152600160208190526040909120015490565b60405190815260200161015b565b3480156101af57600080fd5b506101c36101be366004611e6e565b610443565b005b3480156101d157600080fd5b506101c36101e0366004611e6e565b61046e565b3480156101f157600080fd5b5061019560045481565b34801561020757600080fd5b506101c3610216366004611e39565b6104f1565b34801561022757600080fd5b5061023061055b565b60405161015b9190611fde565b34801561024957600080fd5b506101c3610258366004611e39565b610a4d565b34801561026957600080fd5b506101c36102783660046120e3565b610af8565b34801561028957600080fd5b506101c3610deb565b34801561029e57600080fd5b506000546040516001600160a01b03909116815260200161015b565b3480156102c657600080fd5b5061014f6102d5366004611e6e565b610dff565b3480156102e657600080fd5b506102fa6102f5366004611e39565b610e2a565b60405161015b9190612198565b34801561031357600080fd5b50610195600081565b34801561032857600080fd5b506101c3610337366004611e39565b610ffe565b34801561034857600080fd5b5061014f610357366004611e39565b60076020526000908152604090205460ff1681565b34801561037857600080fd5b506101c3610387366004611e6e565b611060565b34801561039857600080fd5b506101c36103a736600461225e565b611086565b6101c36103ba36600461231d565b611308565b3480156103cb57600080fd5b506101c36103da36600461238a565b6115a3565b3480156103eb57600080fd5b506103ff6103fa366004611e39565b61161c565b60405161015b91906123a5565b60006001600160e01b03198216637965db0b60e01b148061043d57506301ffc9a760e01b6001600160e01b03198316145b92915050565b6000828152600160208190526040909120015461045f81611987565b6104698383611991565b505050565b6001600160a01b03811633146104e35760405162461bcd60e51b815260206004820152602f60248201527f416363657373436f6e74726f6c3a2063616e206f6e6c792072656e6f756e636560448201526e103937b632b9903337b91039b2b63360891b60648201526084015b60405180910390fd5b6104ed82826119fc565b5050565b6104f9611a63565b60008111801561050a575060648111155b6105565760405162461bcd60e51b815260206004820152601f60248201527f50657263656e74206d757374206265206265747765656e2030202d203130300060448201526064016104da565b600455565b6060600060015b60025481116105eb576000818152600560205260409020600b015460ff161580156105a457506000818152600560205260409020600b0154610100900460ff16155b80156105c6575060008181526005602052604090206007810154600990910154105b156105d957816105d5816123ce565b9250505b806105e3816123ce565b915050610562565b508067ffffffffffffffff81111561060557610605612040565b60405190808252806020026020018201604052801561063e57816020015b61062b611d9a565b8152602001906001900390816106235790505b509150600060015b6002548111610a47576000818152600560205260409020600b015460ff1615801561068857506000818152600560205260409020600b0154610100900460ff16155b80156106aa575060008181526005602052604090206007810154600990910154105b15610a355760008181526005602090815260409182902082516101a0810184528154815260018201546001600160a01b03169281019290925260028101805492939192918401916106fa906123e7565b80601f0160208091040260200160405190810160405280929190818152602001828054610726906123e7565b80156107735780601f1061074857610100808354040283529160200191610773565b820191906000526020600020905b81548152906001019060200180831161075657829003601f168201915b5050505050815260200160038201805461078c906123e7565b80601f01602080910402602001604051908101604052809291908181526020018280546107b8906123e7565b80156108055780601f106107da57610100808354040283529160200191610805565b820191906000526020600020905b8154815290600101906020018083116107e857829003601f168201915b5050505050815260200160048201805461081e906123e7565b80601f016020809104026020016040519081016040528092919081815260200182805461084a906123e7565b80156108975780601f1061086c57610100808354040283529160200191610897565b820191906000526020600020905b81548152906001019060200180831161087a57829003601f168201915b505050505081526020016005820180546108b0906123e7565b80601f01602080910402602001604051908101604052809291908181526020018280546108dc906123e7565b80156109295780601f106108fe57610100808354040283529160200191610929565b820191906000526020600020905b81548152906001019060200180831161090c57829003601f168201915b50505050508152602001600682018054610942906123e7565b80601f016020809104026020016040519081016040528092919081815260200182805461096e906123e7565b80156109bb5780601f10610990576101008083540402835291602001916109bb565b820191906000526020600020905b81548152906001019060200180831161099e57829003601f168201915b5050509183525050600782015460208201526008820154604082015260098201546060820152600a8201546080820152600b9091015460ff808216151560a084015261010090910416151560c0909101528483610a17816123ce565b945081518110610a2957610a29612421565b60200260200101819052505b80610a3f816123ce565b915050610646565b50505090565b6000818152600560205260409020600101546001600160a01b03163314610aac5760405162461bcd60e51b8152602060048201526013602482015272556e617574686f72697a656420456e7469747960681b60448201526064016104da565b60008181526007602052604090205460ff16610ada5760405162461bcd60e51b81526004016104da90612437565b6000908152600560205260409020600b01805460ff19166001179055565b6000855111610b405760405162461bcd60e51b81526020600482015260146024820152734e616d652063616e6e6f7420626520656d70747960601b60448201526064016104da565b6000835111610b915760405162461bcd60e51b815260206004820152601b60248201527f4465736372697074696f6e2063616e6e6f7420626520656d707479000000000060448201526064016104da565b6000845111610bdc5760405162461bcd60e51b815260206004820152601760248201527650726f66696c652063616e6e6f7420626520656d70747960481b60448201526064016104da565b6000825111610c255760405162461bcd60e51b8152602060048201526015602482015274496d6167652063616e6e6f7420626520656d70747960581b60448201526064016104da565b60008111610c6d5760405162461bcd60e51b8152602060048201526015602482015274416d6f756e742063616e6e6f74206265207a65726f60581b60448201526064016104da565b610c7b600280546001019055565b610c83611d9a565b6002548152336020820152604081018690526080810184905260a0810183905260c0810185905260e08101829052610cb9611abd565b610140820152805160009081526005602090815260409182902083518155908301516001820180546001600160a01b0319166001600160a01b03909216919091179055908201518291906002820190610d1290826124a8565b5060608201516003820190610d2790826124a8565b5060808201516004820190610d3c90826124a8565b5060a08201516005820190610d5190826124a8565b5060c08201516006820190610d6690826124a8565b5060e08201516007828101919091556101008084015160088401556101208401516009840155610140840151600a840155610160840151600b90930180546101809095015161ffff1990951693151561ff00191693909317931515029290921790559051600090815260209190915260409020805460ff191660011790555050505050565b610df3611a63565b610dfd6000611adc565b565b60009182526001602090815260408084206001600160a01b0393909316845291905290205460ff1690565b606060066000838152602001908152602001600020805480602002602001604051908101604052809291908181526020016000905b82821015610ff357838290600052602060002090600702016040518060e00160405290816000820154815260200160018201548152602001600282018054610ea6906123e7565b80601f0160208091040260200160405190810160405280929190818152602001828054610ed2906123e7565b8015610f1f5780601f10610ef457610100808354040283529160200191610f1f565b820191906000526020600020905b815481529060010190602001808311610f0257829003601f168201915b505050505081526020016003820154815260200160048201548152602001600582018054610f4c906123e7565b80601f0160208091040260200160405190810160405280929190818152602001828054610f78906123e7565b8015610fc55780601f10610f9a57610100808354040283529160200191610fc5565b820191906000526020600020905b815481529060010190602001808311610fa857829003601f168201915b5050509183525050600691909101546001600160a01b03166020918201529082526001929092019101610e5f565b505050509050919050565b611006611a63565b60008181526007602052604090205460ff166110345760405162461bcd60e51b81526004016104da90612437565b6000908152600560205260409020600b01805461ff001981166101009182900460ff1615909102179055565b6000828152600160208190526040909120015461107c81611987565b61046983836119fc565b6000868152600560205260409020600101546001600160a01b031633146110e55760405162461bcd60e51b8152602060048201526013602482015272556e617574686f72697a656420456e7469747960681b60448201526064016104da565b60008681526007602052604090205460ff166111135760405162461bcd60e51b81526004016104da90612437565b600085511161115b5760405162461bcd60e51b81526020600482015260146024820152734e616d652063616e6e6f7420626520656d70747960601b60448201526064016104da565b60008351116111ac5760405162461bcd60e51b815260206004820152601b60248201527f4465736372697074696f6e2063616e6e6f7420626520656d707479000000000060448201526064016104da565b60008451116111f75760405162461bcd60e51b815260206004820152601760248201527650726f66696c652063616e6e6f7420626520656d70747960481b60448201526064016104da565b60008251116112405760405162461bcd60e51b8152602060048201526015602482015274496d6167652063616e6e6f7420626520656d70747960581b60448201526064016104da565b600081116112885760405162461bcd60e51b8152602060048201526015602482015274416d6f756e742063616e6e6f74206265207a65726f60581b60448201526064016104da565b60008681526005602052604090206002016112a386826124a8565b506000868152600560208190526040909120016112c083826124a8565b506000868152600560205260409020600781018290556006016112e385826124a8565b5060008681526005602052604090206004016112ff84826124a8565b50505050505050565b600034116113585760405162461bcd60e51b815260206004820152601760248201527f446f6e6174696f6e2063616e6e6f74206265207a65726f00000000000000000060448201526064016104da565b60008381526007602052604090205460ff166113865760405162461bcd60e51b81526004016104da90612437565b60008381526005602052604090206007810154600990910154106113ec5760405162461bcd60e51b815260206004820152601860248201527f43686172697479206275646765742066756c66696c6c6564000000000000000060448201526064016104da565b6113fa600380546001019055565b6114436040518060e0016040528060008152602001600081526020016060815260200160008152602001600081526020016060815260200160006001600160a01b031681525090565b6003548152602081018490526040810183905260a08101829052611465611abd565b60808201526000848152600660209081526040808320805460018181018355918552938390208551600790950201938455918401519183019190915582015182919060028201906114b690826124a8565b50606082015160038201556080820151600482015560a082015160058201906114df90826124a8565b5060c09190910151600690910180546001600160a01b0319166001600160a01b03909216919091179055600454600085815260056020526040812060070154909160649161152d9190612568565b611537919061257f565b600086815260056020526040812060070154919250906115589083906125a1565b600087815260056020526040902060010154909150611580906001600160a01b031682611b2c565b61159b6115956000546001600160a01b031690565b83611b2c565b505050505050565b6115ab611a63565b6001600160a01b0381166116105760405162461bcd60e51b815260206004820152602660248201527f4f776e61626c653a206e6577206f776e657220697320746865207a65726f206160448201526564647265737360d01b60648201526084016104da565b61161981611adc565b50565b611624611d9a565b60008281526005602090815260409182902082516101a0810184528154815260018201546001600160a01b031692810192909252600281018054929391929184019161166f906123e7565b80601f016020809104026020016040519081016040528092919081815260200182805461169b906123e7565b80156116e85780601f106116bd576101008083540402835291602001916116e8565b820191906000526020600020905b8154815290600101906020018083116116cb57829003601f168201915b50505050508152602001600382018054611701906123e7565b80601f016020809104026020016040519081016040528092919081815260200182805461172d906123e7565b801561177a5780601f1061174f5761010080835404028352916020019161177a565b820191906000526020600020905b81548152906001019060200180831161175d57829003601f168201915b50505050508152602001600482018054611793906123e7565b80601f01602080910402602001604051908101604052809291908181526020018280546117bf906123e7565b801561180c5780601f106117e15761010080835404028352916020019161180c565b820191906000526020600020905b8154815290600101906020018083116117ef57829003601f168201915b50505050508152602001600582018054611825906123e7565b80601f0160208091040260200160405190810160405280929190818152602001828054611851906123e7565b801561189e5780601f106118735761010080835404028352916020019161189e565b820191906000526020600020905b81548152906001019060200180831161188157829003601f168201915b505050505081526020016006820180546118b7906123e7565b80601f01602080910402602001604051908101604052809291908181526020018280546118e3906123e7565b80156119305780601f1061190557610100808354040283529160200191611930565b820191906000526020600020905b81548152906001019060200180831161191357829003601f168201915b5050509183525050600782015460208201526008820154604082015260098201546060820152600a8201546080820152600b9091015460ff808216151560a084015261010090910416151560c09091015292915050565b6116198133611b8c565b61199b8282610dff565b6104ed5760008281526001602081815260408084206001600160a01b0386168086529252808420805460ff19169093179092559051339285917f2f8788117e7eff1d82e926ec794901d17c78024a50270940304540a733656f0d9190a45050565b611a068282610dff565b156104ed5760008281526001602090815260408083206001600160a01b0385168085529252808320805460ff1916905551339285917ff6391f5c32d9c69d2a47ea670b442974b53935d1edc7fd64eb21e047a839171b9190a45050565b6000546001600160a01b03163314610dfd5760405162461bcd60e51b815260206004820181905260248201527f4f776e61626c653a2063616c6c6572206973206e6f7420746865206f776e657260448201526064016104da565b6000611acb426103e8612568565b611ad7906103e86125b4565b905090565b600080546001600160a01b038381166001600160a01b0319831681178455604051919092169283917f8be0079c531659141344cd1fd0a4f28419497f9722a3daafe3b4186f6b6457e09190a35050565b6000826001600160a01b03168260405160006040518083038185875af1925050503d8060008114611b79576040519150601f19603f3d011682016040523d82523d6000602084013e611b7e565b606091505b505090508061046957600080fd5b611b968282610dff565b6104ed57611ba381611be5565b611bae836020611bf7565b604051602001611bbf9291906125c7565b60408051601f198184030181529082905262461bcd60e51b82526104da9160040161263c565b606061043d6001600160a01b03831660145b60606000611c06836002612568565b611c119060026125b4565b67ffffffffffffffff811115611c2957611c29612040565b6040519080825280601f01601f191660200182016040528015611c53576020820181803683370190505b509050600360fc1b81600081518110611c6e57611c6e612421565b60200101906001600160f81b031916908160001a905350600f60fb1b81600181518110611c9d57611c9d612421565b60200101906001600160f81b031916908160001a9053506000611cc1846002612568565b611ccc9060016125b4565b90505b6001811115611d44576f181899199a1a9b1b9c1cb0b131b232b360811b85600f1660108110611d0057611d00612421565b1a60f81b828281518110611d1657611d16612421565b60200101906001600160f81b031916908160001a90535060049490941c93611d3d8161264f565b9050611ccf565b508315611d935760405162461bcd60e51b815260206004820181905260248201527f537472696e67733a20686578206c656e67746820696e73756666696369656e7460448201526064016104da565b9392505050565b604051806101a001604052806000815260200160006001600160a01b031681526020016060815260200160608152602001606081526020016060815260200160608152602001600081526020016000815260200160008152602001600081526020016000151581526020016000151581525090565b600060208284031215611e2157600080fd5b81356001600160e01b031981168114611d9357600080fd5b600060208284031215611e4b57600080fd5b5035919050565b80356001600160a01b0381168114611e6957600080fd5b919050565b60008060408385031215611e8157600080fd5b82359150611e9160208401611e52565b90509250929050565b60005b83811015611eb5578181015183820152602001611e9d565b50506000910152565b60008151808452611ed6816020860160208601611e9a565b601f01601f19169290920160200192915050565b60006101a0825184526020830151611f0d60208601826001600160a01b03169052565b506040830151816040860152611f2582860182611ebe565b91505060608301518482036060860152611f3f8282611ebe565b91505060808301518482036080860152611f598282611ebe565b91505060a083015184820360a0860152611f738282611ebe565b91505060c083015184820360c0860152611f8d8282611ebe565b60e08581015190870152610100808601519087015261012080860151908701526101408086015190870152610160808601511515908701526101809485015115159490950193909352509192915050565b6000602080830181845280855180835260408601915060408160051b870101925083870160005b8281101561203357603f19888603018452612021858351611eea565b94509285019290850190600101612005565b5092979650505050505050565b634e487b7160e01b600052604160045260246000fd5b600082601f83011261206757600080fd5b813567ffffffffffffffff8082111561208257612082612040565b604051601f8301601f19908116603f011681019082821181831017156120aa576120aa612040565b816040528381528660208588010111156120c357600080fd5b836020870160208301376000602085830101528094505050505092915050565b600080600080600060a086880312156120fb57600080fd5b853567ffffffffffffffff8082111561211357600080fd5b61211f89838a01612056565b9650602088013591508082111561213557600080fd5b61214189838a01612056565b9550604088013591508082111561215757600080fd5b61216389838a01612056565b9450606088013591508082111561217957600080fd5b5061218688828901612056565b95989497509295608001359392505050565b60006020808301818452808551808352604092508286019150828160051b87010184880160005b8381101561225057603f19898403018552815160e08151855288820151898601528782015181898701526121f582870182611ebe565b9150506060808301518187015250608080830151818701525060a080830151868303828801526122258382611ebe565b60c0948501516001600160a01b031697909401969096525050948701949250908601906001016121bf565b509098975050505050505050565b60008060008060008060c0878903121561227757600080fd5b86359550602087013567ffffffffffffffff8082111561229657600080fd5b6122a28a838b01612056565b965060408901359150808211156122b857600080fd5b6122c48a838b01612056565b955060608901359150808211156122da57600080fd5b6122e68a838b01612056565b945060808901359150808211156122fc57600080fd5b5061230989828a01612056565b92505060a087013590509295509295509295565b60008060006060848603121561233257600080fd5b83359250602084013567ffffffffffffffff8082111561235157600080fd5b61235d87838801612056565b9350604086013591508082111561237357600080fd5b5061238086828701612056565b9150509250925092565b60006020828403121561239c57600080fd5b611d9382611e52565b602081526000611d936020830184611eea565b634e487b7160e01b600052601160045260246000fd5b6000600182016123e0576123e06123b8565b5060010190565b600181811c908216806123fb57607f821691505b60208210810361241b57634e487b7160e01b600052602260045260246000fd5b50919050565b634e487b7160e01b600052603260045260246000fd5b60208082526011908201527010da185c9a5d1e48139bdd08119bdd5b99607a1b604082015260600190565b601f82111561046957600081815260208120601f850160051c810160208610156124895750805b601f850160051c820191505b8181101561159b57828155600101612495565b815167ffffffffffffffff8111156124c2576124c2612040565b6124d6816124d084546123e7565b84612462565b602080601f83116001811461250b57600084156124f35750858301515b600019600386901b1c1916600185901b17855561159b565b600085815260208120601f198616915b8281101561253a5788860151825594840194600190910190840161251b565b50858210156125585787850151600019600388901b60f8161c191681555b5050505050600190811b01905550565b808202811582820484141761043d5761043d6123b8565b60008261259c57634e487b7160e01b600052601260045260246000fd5b500490565b8181038181111561043d5761043d6123b8565b8082018082111561043d5761043d6123b8565b7f416363657373436f6e74726f6c3a206163636f756e74200000000000000000008152600083516125ff816017850160208801611e9a565b7001034b99036b4b9b9b4b733903937b6329607d1b6017918401918201528351612630816028840160208801611e9a565b01602801949350505050565b602081526000611d936020830184611ebe565b60008161265e5761265e6123b8565b50600019019056fea2646970667358221220e9f3c44ca90ad07acfb1b7fd6bba265be55fb5ef04eae16c2be6f5dd825fd64f64736f6c63430008110033",
  "linkReferences": {},
  "deployedLinkReferences": {}
}