{
  "_format": "hh-sol-artifact-1",
  "contractName": "DappFund",
  "sourceName": "contracts/DappFund.sol",
  "abi": [
    {
      "inputs": [
        {
          "internalType": "uint256",
          "name": "_charityTax",
          "type": "uint256"
        }
      ],
      "stateMutability": "nonpayable",
      "type": "constructor"
    },
    {
      "anonymous": false,
      "inputs": [
        {
          "indexed": true,
          "internalType": "address",
          "name": "previousOwner",
          "type": "address"
        },
        {
          "indexed": true,
          "internalType": "address",
          "name": "newOwner",
          "type": "address"
        }
      ],
      "name": "OwnershipTransferred",
      "type": "event"
    },
    {
      "anonymous": false,
      "inputs": [
        {
          "indexed": true,
          "internalType": "bytes32",
          "name": "role",
          "type": "bytes32"
        },
        {
          "indexed": true,
          "internalType": "bytes32",
          "name": "previousAdminRole",
          "type": "bytes32"
        },
        {
          "indexed": true,
          "internalType": "bytes32",
          "name": "newAdminRole",
          "type": "bytes32"
        }
      ],
      "name": "RoleAdminChanged",
      "type": "event"
    },
    {
      "anonymous": false,
      "inputs": [
        {
          "indexed": true,
          "internalType": "bytes32",
          "name": "role",
          "type": "bytes32"
        },
        {
          "indexed": true,
          "internalType": "address",
          "name": "account",
          "type": "address"
        },
        {
          "indexed": true,
          "internalType": "address",
          "name": "sender",
          "type": "address"
        }
      ],
      "name": "RoleGranted",
      "type": "event"
    },
    {
      "anonymous": false,
      "inputs": [
        {
          "indexed": true,
          "internalType": "bytes32",
          "name": "role",
          "type": "bytes32"
        },
        {
          "indexed": true,
          "internalType": "address",
          "name": "account",
          "type": "address"
        },
        {
          "indexed": true,
          "internalType": "address",
          "name": "sender",
          "type": "address"
        }
      ],
      "name": "RoleRevoked",
      "type": "event"
    },
    {
      "inputs": [],
      "name": "DEFAULT_ADMIN_ROLE",
      "outputs": [
        {
          "internalType": "bytes32",
          "name": "",
          "type": "bytes32"
        }
      ],
      "stateMutability": "view",
      "type": "function"
    },
    {
      "inputs": [
        {
          "internalType": "uint256",
          "name": "_taxPct",
          "type": "uint256"
        }
      ],
      "name": "changeTax",
      "outputs": [],
      "stateMutability": "nonpayable",
      "type": "function"
    },
    {
      "inputs": [
        {
          "internalType": "uint256",
          "name": "",
          "type": "uint256"
        }
      ],
      "name": "charityExist",
      "outputs": [
        {
          "internalType": "bool",
          "name": "",
          "type": "bool"
        }
      ],
      "stateMutability": "view",
      "type": "function"
    },
    {
      "inputs": [],
      "name": "charityTax",
      "outputs": [
        {
          "internalType": "uint256",
          "name": "",
          "type": "uint256"
        }
      ],
      "stateMutability": "view",
      "type": "function"
    },
    {
      "inputs": [
        {
          "internalType": "string",
          "name": "name",
          "type": "string"
        },
        {
          "internalType": "string",
          "name": "fullname",
          "type": "string"
        },
        {
          "internalType": "string",
          "name": "profile",
          "type": "string"
        },
        {
          "internalType": "string",
          "name": "description",
          "type": "string"
        },
        {
          "internalType": "string",
          "name": "image",
          "type": "string"
        },
        {
          "internalType": "uint256",
          "name": "amount",
          "type": "uint256"
        }
      ],
      "name": "createCharity",
      "outputs": [],
      "stateMutability": "nonpayable",
      "type": "function"
    },
    {
      "inputs": [
        {
          "internalType": "uint256",
          "name": "id",
          "type": "uint256"
        }
      ],
      "name": "deleteCharity",
      "outputs": [],
      "stateMutability": "nonpayable",
      "type": "function"
    },
    {
      "inputs": [
        {
          "internalType": "uint256",
          "name": "id",
          "type": "uint256"
        },
        {
          "internalType": "string",
          "name": "fullname",
          "type": "string"
        },
        {
          "internalType": "string",
          "name": "comment",
          "type": "string"
        }
      ],
      "name": "donate",
      "outputs": [],
      "stateMutability": "payable",
      "type": "function"
    },
    {
      "inputs": [],
      "name": "getCharities",
      "outputs": [
        {
          "components": [
            {
              "internalType": "uint256",
              "name": "id",
              "type": "uint256"
            },
            {
              "internalType": "address",
              "name": "owner",
              "type": "address"
            },
            {
              "internalType": "string",
              "name": "name",
              "type": "string"
            },
            {
              "internalType": "string",
              "name": "fullname",
              "type": "string"
            },
            {
              "internalType": "string",
              "name": "description",
              "type": "string"
            },
            {
              "internalType": "string",
              "name": "image",
              "type": "string"
            },
            {
              "internalType": "string",
              "name": "profile",
              "type": "string"
            },
            {
              "internalType": "uint256",
              "name": "amount",
              "type": "uint256"
            },
            {
              "internalType": "uint256",
              "name": "donations",
              "type": "uint256"
            },
            {
              "internalType": "uint256",
              "name": "raised",
              "type": "uint256"
            },
            {
              "internalType": "uint256",
              "name": "timestamp",
              "type": "uint256"
            },
            {
              "internalType": "bool",
              "name": "deleted",
              "type": "bool"
            },
            {
              "internalType": "bool",
              "name": "banned",
              "type": "bool"
            }
          ],
          "internalType": "struct DappFund.CharityStruct[]",
          "name": "Charities",
          "type": "tuple[]"
        }
      ],
      "stateMutability": "view",
      "type": "function"
    },
    {
      "inputs": [
        {
          "internalType": "uint256",
          "name": "id",
          "type": "uint256"
        }
      ],
      "name": "getCharity",
      "outputs": [
        {
          "components": [
            {
              "internalType": "uint256",
              "name": "id",
              "type": "uint256"
            },
            {
              "internalType": "address",
              "name": "owner",
              "type": "address"
            },
            {
              "internalType": "string",
              "name": "name",
              "type": "string"
            },
            {
              "internalType": "string",
              "name": "fullname",
              "type": "string"
            },
            {
              "internalType": "string",
              "name": "description",
              "type": "string"
            },
            {
              "internalType": "string",
              "name": "image",
              "type": "string"
            },
            {
              "internalType": "string",
              "name": "profile",
              "type": "string"
            },
            {
              "internalType": "uint256",
              "name": "amount",
              "type": "uint256"
            },
            {
              "internalType": "uint256",
              "name": "donations",
              "type": "uint256"
            },
            {
              "internalType": "uint256",
              "name": "raised",
              "type": "uint256"
            },
            {
              "internalType": "uint256",
              "name": "timestamp",
              "type": "uint256"
            },
            {
              "internalType": "bool",
              "name": "deleted",
              "type": "bool"
            },
            {
              "internalType": "bool",
              "name": "banned",
              "type": "bool"
            }
          ],
          "internalType": "struct DappFund.CharityStruct",
          "name": "",
          "type": "tuple"
        }
      ],
      "stateMutability": "view",
      "type": "function"
    },
    {
      "inputs": [
        {
          "internalType": "bytes32",
          "name": "role",
          "type": "bytes32"
        }
      ],
      "name": "getRoleAdmin",
      "outputs": [
        {
          "internalType": "bytes32",
          "name": "",
          "type": "bytes32"
        }
      ],
      "stateMutability": "view",
      "type": "function"
    },
    {
      "inputs": [
        {
          "internalType": "uint256",
          "name": "id",
          "type": "uint256"
        }
      ],
      "name": "getSupports",
      "outputs": [
        {
          "components": [
            {
              "internalType": "uint256",
              "name": "id",
              "type": "uint256"
            },
            {
              "internalType": "uint256",
              "name": "cid",
              "type": "uint256"
            },
            {
              "internalType": "string",
              "name": "fullname",
              "type": "string"
            },
            {
              "internalType": "uint256",
              "name": "amount",
              "type": "uint256"
            },
            {
              "internalType": "uint256",
              "name": "timestamp",
              "type": "uint256"
            },
            {
              "internalType": "string",
              "name": "comment",
              "type": "string"
            },
            {
              "internalType": "address",
              "name": "supporter",
              "type": "address"
            }
          ],
          "internalType": "struct DappFund.SupportStruct[]",
          "name": "",
          "type": "tuple[]"
        }
      ],
      "stateMutability": "view",
      "type": "function"
    },
    {
      "inputs": [
        {
          "internalType": "bytes32",
          "name": "role",
          "type": "bytes32"
        },
        {
          "internalType": "address",
          "name": "account",
          "type": "address"
        }
      ],
      "name": "grantRole",
      "outputs": [],
      "stateMutability": "nonpayable",
      "type": "function"
    },
    {
      "inputs": [
        {
          "internalType": "bytes32",
          "name": "role",
          "type": "bytes32"
        },
        {
          "internalType": "address",
          "name": "account",
          "type": "address"
        }
      ],
      "name": "hasRole",
      "outputs": [
        {
          "internalType": "bool",
          "name": "",
          "type": "bool"
        }
      ],
      "stateMutability": "view",
      "type": "function"
    },
    {
      "inputs": [],
      "name": "owner",
      "outputs": [
        {
          "internalType": "address",
          "name": "",
          "type": "address"
        }
      ],
      "stateMutability": "view",
      "type": "function"
    },
    {
      "inputs": [],
      "name": "renounceOwnership",
      "outputs": [],
      "stateMutability": "nonpayable",
      "type": "function"
    },
    {
      "inputs": [
        {
          "internalType": "bytes32",
          "name": "role",
          "type": "bytes32"
        },
        {
          "internalType": "address",
          "name": "account",
          "type": "address"
        }
      ],
      "name": "renounceRole",
      "outputs": [],
      "stateMutability": "nonpayable",
      "type": "function"
    },
    {
      "inputs": [
        {
          "internalType": "bytes32",
          "name": "role",
          "type": "bytes32"
        },
        {
          "internalType": "address",
          "name": "account",
          "type": "address"
        }
      ],
      "name": "revokeRole",
      "outputs": [],
      "stateMutability": "nonpayable",
      "type": "function"
    },
    {
      "inputs": [
        {
          "internalType": "bytes4",
          "name": "interfaceId",
          "type": "bytes4"
        }
      ],
      "name": "supportsInterface",
      "outputs": [
        {
          "internalType": "bool",
          "name": "",
          "type": "bool"
        }
      ],
      "stateMutability": "view",
      "type": "function"
    },
    {
      "inputs": [
        {
          "internalType": "uint256",
          "name": "id",
          "type": "uint256"
        }
      ],
      "name": "toggleBan",
      "outputs": [],
      "stateMutability": "nonpayable",
      "type": "function"
    },
    {
      "inputs": [
        {
          "internalType": "address",
          "name": "newOwner",
          "type": "address"
        }
      ],
      "name": "transferOwnership",
      "outputs": [],
      "stateMutability": "nonpayable",
      "type": "function"
    },
    {
      "inputs": [
        {
          "internalType": "uint256",
          "name": "id",
          "type": "uint256"
        },
        {
          "internalType": "string",
          "name": "name",
          "type": "string"
        },
        {
          "internalType": "string",
          "name": "fullname",
          "type": "string"
        },
        {
          "internalType": "string",
          "name": "profile",
          "type": "string"
        },
        {
          "internalType": "string",
          "name": "description",
          "type": "string"
        },
        {
          "internalType": "string",
          "name": "image",
          "type": "string"
        },
        {
          "internalType": "uint256",
          "name": "amount",
          "type": "uint256"
        }
      ],
      "name": "updateCharity",
      "outputs": [],
      "stateMutability": "nonpayable",
      "type": "function"
    }
  ],
  "bytecode": "0x60806040523480156200001157600080fd5b506040516200286838038062002868833981016040819052620000349162000098565b6200003f3362000048565b600455620000b2565b600080546001600160a01b038381166001600160a01b0319831681178455604051919092169283917f8be0079c531659141344cd1fd0a4f28419497f9722a3daafe3b4186f6b6457e09190a35050565b600060208284031215620000ab57600080fd5b5051919050565b6127a680620000c26000396000f3fe60806040526004361061012a5760003560e01c806391d14854116100ab578063cdb532b91161006f578063cdb532b91461034c578063d547741f1461036c578063ed5724711461038c578063f2ccf839146103ac578063f2fde38b146103bf578063fd67db81146103df57600080fd5b806391d148541461029a57806395024734146102ba578063a217fddf146102e7578063ac3238c1146102fc578063b48c06dd1461031c57600080fd5b80633d784783116100f25780633d784783146102055780633e45c8af1461021b57806348112c6f1461023b578063715018a61461025d5780638da5cb5b1461027257600080fd5b806301ffc9a71461012f578063063165a314610164578063248a9ca3146101865780632f2ff15d146101c557806336568abe146101e5575b600080fd5b34801561013b57600080fd5b5061014f61014a366004611ece565b61040c565b60405190151581526020015b60405180910390f35b34801561017057600080fd5b5061018461017f366004611f9b565b610443565b005b34801561019257600080fd5b506101b76101a1366004612075565b6000908152600160208190526040909120015490565b60405190815260200161015b565b3480156101d157600080fd5b506101846101e03660046120aa565b61078f565b3480156101f157600080fd5b506101846102003660046120aa565b6107ba565b34801561021157600080fd5b506101b760045481565b34801561022757600080fd5b50610184610236366004612075565b610838565b34801561024757600080fd5b506102506108a2565b60405161015b919061221a565b34801561026957600080fd5b50610184610d94565b34801561027e57600080fd5b506000546040516001600160a01b03909116815260200161015b565b3480156102a657600080fd5b5061014f6102b53660046120aa565b610da8565b3480156102c657600080fd5b506102da6102d5366004612075565b610dd3565b60405161015b919061227c565b3480156102f357600080fd5b506101b7600081565b34801561030857600080fd5b50610184610317366004612075565b610fa7565b34801561032857600080fd5b5061014f610337366004612075565b60076020526000908152604090205460ff1681565b34801561035857600080fd5b50610184610367366004612075565b611009565b34801561037857600080fd5b506101846103873660046120aa565b6110b4565b34801561039857600080fd5b506101846103a7366004612342565b6110da565b6101846103ba366004612427565b6113c5565b3480156103cb57600080fd5b506101846103da366004612494565b611662565b3480156103eb57600080fd5b506103ff6103fa366004612075565b6116db565b60405161015b91906124af565b60006001600160e01b03198216637965db0b60e01b148061043d57506301ffc9a760e01b6001600160e01b03198316145b92915050565b60008651116104905760405162461bcd60e51b81526020600482015260146024820152734e616d652063616e6e6f7420626520656d70747960601b60448201526064015b60405180910390fd5b60008551116104dc5760405162461bcd60e51b815260206004820152601860248201527746756c6c6e616d652063616e6e6f7420626520656d70747960401b6044820152606401610487565b600083511161052d5760405162461bcd60e51b815260206004820152601b60248201527f4465736372697074696f6e2063616e6e6f7420626520656d70747900000000006044820152606401610487565b60008451116105785760405162461bcd60e51b815260206004820152601760248201527650726f66696c652063616e6e6f7420626520656d70747960481b6044820152606401610487565b60008251116105c15760405162461bcd60e51b8152602060048201526015602482015274496d6167652063616e6e6f7420626520656d70747960581b6044820152606401610487565b600081116106095760405162461bcd60e51b8152602060048201526015602482015274416d6f756e742063616e6e6f74206265207a65726f60581b6044820152606401610487565b610617600280546001019055565b61061f611e59565b600254815233602082015260408101879052606081018690526080810184905260a0810183905260c0810185905260e0810182905261065c611a46565b610140820152805160009081526005602090815260409182902083518155908301516001820180546001600160a01b0319166001600160a01b039092169190911790559082015182919060028201906106b59082612542565b50606082015160038201906106ca9082612542565b50608082015160048201906106df9082612542565b5060a082015160058201906106f49082612542565b5060c082015160068201906107099082612542565b5060e08201516007828101919091556101008084015160088401556101208401516009840155610140840151600a840155610160840151600b90930180546101809095015161ffff1990951693151561ff00191693909317931515029290921790559051600090815260209190915260409020805460ff19166001179055505050505050565b600082815260016020819052604090912001546107ab81611a65565b6107b58383611a6f565b505050565b6001600160a01b038116331461082a5760405162461bcd60e51b815260206004820152602f60248201527f416363657373436f6e74726f6c3a2063616e206f6e6c792072656e6f756e636560448201526e103937b632b9903337b91039b2b63360891b6064820152608401610487565b6108348282611ada565b5050565b610840611b41565b600081118015610851575060648111155b61089d5760405162461bcd60e51b815260206004820152601f60248201527f50657263656e74206d757374206265206265747765656e2030202d20313030006044820152606401610487565b600455565b6060600060015b6002548111610932576000818152600560205260409020600b015460ff161580156108eb57506000818152600560205260409020600b0154610100900460ff16155b801561090d575060008181526005602052604090206007810154600990910154105b15610920578161091c81612618565b9250505b8061092a81612618565b9150506108a9565b508067ffffffffffffffff81111561094c5761094c611ef8565b60405190808252806020026020018201604052801561098557816020015b610972611e59565b81526020019060019003908161096a5790505b509150600060015b6002548111610d8e576000818152600560205260409020600b015460ff161580156109cf57506000818152600560205260409020600b0154610100900460ff16155b80156109f1575060008181526005602052604090206007810154600990910154105b15610d7c5760008181526005602090815260409182902082516101a0810184528154815260018201546001600160a01b0316928101929092526002810180549293919291840191610a41906124c2565b80601f0160208091040260200160405190810160405280929190818152602001828054610a6d906124c2565b8015610aba5780601f10610a8f57610100808354040283529160200191610aba565b820191906000526020600020905b815481529060010190602001808311610a9d57829003601f168201915b50505050508152602001600382018054610ad3906124c2565b80601f0160208091040260200160405190810160405280929190818152602001828054610aff906124c2565b8015610b4c5780601f10610b2157610100808354040283529160200191610b4c565b820191906000526020600020905b815481529060010190602001808311610b2f57829003601f168201915b50505050508152602001600482018054610b65906124c2565b80601f0160208091040260200160405190810160405280929190818152602001828054610b91906124c2565b8015610bde5780601f10610bb357610100808354040283529160200191610bde565b820191906000526020600020905b815481529060010190602001808311610bc157829003601f168201915b50505050508152602001600582018054610bf7906124c2565b80601f0160208091040260200160405190810160405280929190818152602001828054610c23906124c2565b8015610c705780601f10610c4557610100808354040283529160200191610c70565b820191906000526020600020905b815481529060010190602001808311610c5357829003601f168201915b50505050508152602001600682018054610c89906124c2565b80601f0160208091040260200160405190810160405280929190818152602001828054610cb5906124c2565b8015610d025780601f10610cd757610100808354040283529160200191610d02565b820191906000526020600020905b815481529060010190602001808311610ce557829003601f168201915b5050509183525050600782015460208201526008820154604082015260098201546060820152600a8201546080820152600b9091015460ff808216151560a084015261010090910416151560c0909101528483610d5e81612618565b945081518110610d7057610d70612631565b60200260200101819052505b80610d8681612618565b91505061098d565b50505090565b610d9c611b41565b610da66000611b9b565b565b60009182526001602090815260408084206001600160a01b0393909316845291905290205460ff1690565b606060066000838152602001908152602001600020805480602002602001604051908101604052809291908181526020016000905b82821015610f9c57838290600052602060002090600702016040518060e00160405290816000820154815260200160018201548152602001600282018054610e4f906124c2565b80601f0160208091040260200160405190810160405280929190818152602001828054610e7b906124c2565b8015610ec85780601f10610e9d57610100808354040283529160200191610ec8565b820191906000526020600020905b815481529060010190602001808311610eab57829003601f168201915b505050505081526020016003820154815260200160048201548152602001600582018054610ef5906124c2565b80601f0160208091040260200160405190810160405280929190818152602001828054610f21906124c2565b8015610f6e5780601f10610f4357610100808354040283529160200191610f6e565b820191906000526020600020905b815481529060010190602001808311610f5157829003601f168201915b5050509183525050600691909101546001600160a01b03166020918201529082526001929092019101610e08565b505050509050919050565b610faf611b41565b60008181526007602052604090205460ff16610fdd5760405162461bcd60e51b815260040161048790612647565b6000908152600560205260409020600b01805461ff001981166101009182900460ff1615909102179055565b60008181526007602052604090205460ff166110375760405162461bcd60e51b815260040161048790612647565b6000818152600560205260409020600101546001600160a01b031633146110965760405162461bcd60e51b8152602060048201526013602482015272556e617574686f72697a656420456e7469747960681b6044820152606401610487565b6000908152600560205260409020600b01805460ff19166001179055565b600082815260016020819052604090912001546110d081611a65565b6107b58383611ada565b60008781526007602052604090205460ff166111085760405162461bcd60e51b815260040161048790612647565b6000878152600560205260409020600101546001600160a01b031633146111675760405162461bcd60e51b8152602060048201526013602482015272556e617574686f72697a656420456e7469747960681b6044820152606401610487565b60008651116111af5760405162461bcd60e51b81526020600482015260146024820152734e616d652063616e6e6f7420626520656d70747960601b6044820152606401610487565b60008551116111fb5760405162461bcd60e51b815260206004820152601860248201527746756c6c6e616d652063616e6e6f7420626520656d70747960401b6044820152606401610487565b600083511161124c5760405162461bcd60e51b815260206004820152601b60248201527f4465736372697074696f6e2063616e6e6f7420626520656d70747900000000006044820152606401610487565b60008451116112975760405162461bcd60e51b815260206004820152601760248201527650726f66696c652063616e6e6f7420626520656d70747960481b6044820152606401610487565b60008251116112e05760405162461bcd60e51b8152602060048201526015602482015274496d6167652063616e6e6f7420626520656d70747960581b6044820152606401610487565b600081116113285760405162461bcd60e51b8152602060048201526015602482015274416d6f756e742063616e6e6f74206265207a65726f60581b6044820152606401610487565b60008781526005602052604090206002016113438782612542565b50600087815260056020526040902060030161135f8682612542565b5060008781526005602081905260409091200161137c8382612542565b5060008781526005602052604090206007810182905560060161139f8582612542565b5060008781526005602052604090206004016113bb8482612542565b5050505050505050565b60008381526007602052604090205460ff166113f35760405162461bcd60e51b815260040161048790612647565b600034116114435760405162461bcd60e51b815260206004820152601760248201527f446f6e6174696f6e2063616e6e6f74206265207a65726f0000000000000000006044820152606401610487565b60008381526005602052604090206007810154600990910154106114a95760405162461bcd60e51b815260206004820152601860248201527f43686172697479206275646765742066756c66696c6c656400000000000000006044820152606401610487565b6114b7600380546001019055565b6115006040518060e0016040528060008152602001600081526020016060815260200160008152602001600081526020016060815260200160006001600160a01b031681525090565b6003548152602081018490526040810183905260a08101829052611522611a46565b60808201526000848152600660209081526040808320805460018181018355918552938390208551600790950201938455918401519183019190915582015182919060028201906115739082612542565b50606082015160038201556080820151600482015560a0820151600582019061159c9082612542565b5060c09190910151600690910180546001600160a01b0319166001600160a01b03909216919091179055600084815260056020526040812060090180543492906115e7908490612672565b90915550506004546000906064906115ff9034612685565b611609919061269c565b9050600061161782346126be565b60008781526005602052604090206001015490915061163f906001600160a01b031682611beb565b61165a6116546000546001600160a01b031690565b83611beb565b505050505050565b61166a611b41565b6001600160a01b0381166116cf5760405162461bcd60e51b815260206004820152602660248201527f4f776e61626c653a206e6577206f776e657220697320746865207a65726f206160448201526564647265737360d01b6064820152608401610487565b6116d881611b9b565b50565b6116e3611e59565b60008281526005602090815260409182902082516101a0810184528154815260018201546001600160a01b031692810192909252600281018054929391929184019161172e906124c2565b80601f016020809104026020016040519081016040528092919081815260200182805461175a906124c2565b80156117a75780601f1061177c576101008083540402835291602001916117a7565b820191906000526020600020905b81548152906001019060200180831161178a57829003601f168201915b505050505081526020016003820180546117c0906124c2565b80601f01602080910402602001604051908101604052809291908181526020018280546117ec906124c2565b80156118395780601f1061180e57610100808354040283529160200191611839565b820191906000526020600020905b81548152906001019060200180831161181c57829003601f168201915b50505050508152602001600482018054611852906124c2565b80601f016020809104026020016040519081016040528092919081815260200182805461187e906124c2565b80156118cb5780601f106118a0576101008083540402835291602001916118cb565b820191906000526020600020905b8154815290600101906020018083116118ae57829003601f168201915b505050505081526020016005820180546118e4906124c2565b80601f0160208091040260200160405190810160405280929190818152602001828054611910906124c2565b801561195d5780601f106119325761010080835404028352916020019161195d565b820191906000526020600020905b81548152906001019060200180831161194057829003601f168201915b50505050508152602001600682018054611976906124c2565b80601f01602080910402602001604051908101604052809291908181526020018280546119a2906124c2565b80156119ef5780601f106119c4576101008083540402835291602001916119ef565b820191906000526020600020905b8154815290600101906020018083116119d257829003601f168201915b5050509183525050600782015460208201526008820154604082015260098201546060820152600a8201546080820152600b9091015460ff808216151560a084015261010090910416151560c09091015292915050565b6000611a54426103e8612685565b611a60906103e8612672565b905090565b6116d88133611c4b565b611a798282610da8565b6108345760008281526001602081815260408084206001600160a01b0386168086529252808420805460ff19169093179092559051339285917f2f8788117e7eff1d82e926ec794901d17c78024a50270940304540a733656f0d9190a45050565b611ae48282610da8565b156108345760008281526001602090815260408083206001600160a01b0385168085529252808320805460ff1916905551339285917ff6391f5c32d9c69d2a47ea670b442974b53935d1edc7fd64eb21e047a839171b9190a45050565b6000546001600160a01b03163314610da65760405162461bcd60e51b815260206004820181905260248201527f4f776e61626c653a2063616c6c6572206973206e6f7420746865206f776e65726044820152606401610487565b600080546001600160a01b038381166001600160a01b0319831681178455604051919092169283917f8be0079c531659141344cd1fd0a4f28419497f9722a3daafe3b4186f6b6457e09190a35050565b6000826001600160a01b03168260405160006040518083038185875af1925050503d8060008114611c38576040519150601f19603f3d011682016040523d82523d6000602084013e611c3d565b606091505b50509050806107b557600080fd5b611c558282610da8565b61083457611c6281611ca4565b611c6d836020611cb6565b604051602001611c7e9291906126d1565b60408051601f198184030181529082905262461bcd60e51b825261048791600401612746565b606061043d6001600160a01b03831660145b60606000611cc5836002612685565b611cd0906002612672565b67ffffffffffffffff811115611ce857611ce8611ef8565b6040519080825280601f01601f191660200182016040528015611d12576020820181803683370190505b509050600360fc1b81600081518110611d2d57611d2d612631565b60200101906001600160f81b031916908160001a905350600f60fb1b81600181518110611d5c57611d5c612631565b60200101906001600160f81b031916908160001a9053506000611d80846002612685565b611d8b906001612672565b90505b6001811115611e03576f181899199a1a9b1b9c1cb0b131b232b360811b85600f1660108110611dbf57611dbf612631565b1a60f81b828281518110611dd557611dd5612631565b60200101906001600160f81b031916908160001a90535060049490941c93611dfc81612759565b9050611d8e565b508315611e525760405162461bcd60e51b815260206004820181905260248201527f537472696e67733a20686578206c656e67746820696e73756666696369656e746044820152606401610487565b9392505050565b604051806101a001604052806000815260200160006001600160a01b031681526020016060815260200160608152602001606081526020016060815260200160608152602001600081526020016000815260200160008152602001600081526020016000151581526020016000151581525090565b600060208284031215611ee057600080fd5b81356001600160e01b031981168114611e5257600080fd5b634e487b7160e01b600052604160045260246000fd5b600082601f830112611f1f57600080fd5b813567ffffffffffffffff80821115611f3a57611f3a611ef8565b604051601f8301601f19908116603f01168101908282118183101715611f6257611f62611ef8565b81604052838152866020858801011115611f7b57600080fd5b836020870160208301376000602085830101528094505050505092915050565b60008060008060008060c08789031215611fb457600080fd5b863567ffffffffffffffff80821115611fcc57600080fd5b611fd88a838b01611f0e565b97506020890135915080821115611fee57600080fd5b611ffa8a838b01611f0e565b9650604089013591508082111561201057600080fd5b61201c8a838b01611f0e565b9550606089013591508082111561203257600080fd5b61203e8a838b01611f0e565b9450608089013591508082111561205457600080fd5b5061206189828a01611f0e565b92505060a087013590509295509295509295565b60006020828403121561208757600080fd5b5035919050565b80356001600160a01b03811681146120a557600080fd5b919050565b600080604083850312156120bd57600080fd5b823591506120cd6020840161208e565b90509250929050565b60005b838110156120f15781810151838201526020016120d9565b50506000910152565b600081518084526121128160208601602086016120d6565b601f01601f19169290920160200192915050565b60006101a082518452602083015161214960208601826001600160a01b03169052565b506040830151816040860152612161828601826120fa565b9150506060830151848203606086015261217b82826120fa565b9150506080830151848203608086015261219582826120fa565b91505060a083015184820360a08601526121af82826120fa565b91505060c083015184820360c08601526121c982826120fa565b60e08581015190870152610100808601519087015261012080860151908701526101408086015190870152610160808601511515908701526101809485015115159490950193909352509192915050565b6000602080830181845280855180835260408601915060408160051b870101925083870160005b8281101561226f57603f1988860301845261225d858351612126565b94509285019290850190600101612241565b5092979650505050505050565b60006020808301818452808551808352604092508286019150828160051b87010184880160005b8381101561233457603f19898403018552815160e08151855288820151898601528782015181898701526122d9828701826120fa565b9150506060808301518187015250608080830151818701525060a0808301518683038288015261230983826120fa565b60c0948501516001600160a01b031697909401969096525050948701949250908601906001016122a3565b509098975050505050505050565b600080600080600080600060e0888a03121561235d57600080fd5b87359650602088013567ffffffffffffffff8082111561237c57600080fd5b6123888b838c01611f0e565b975060408a013591508082111561239e57600080fd5b6123aa8b838c01611f0e565b965060608a01359150808211156123c057600080fd5b6123cc8b838c01611f0e565b955060808a01359150808211156123e257600080fd5b6123ee8b838c01611f0e565b945060a08a013591508082111561240457600080fd5b506124118a828b01611f0e565b92505060c0880135905092959891949750929550565b60008060006060848603121561243c57600080fd5b83359250602084013567ffffffffffffffff8082111561245b57600080fd5b61246787838801611f0e565b9350604086013591508082111561247d57600080fd5b5061248a86828701611f0e565b9150509250925092565b6000602082840312156124a657600080fd5b611e528261208e565b602081526000611e526020830184612126565b600181811c908216806124d657607f821691505b6020821081036124f657634e487b7160e01b600052602260045260246000fd5b50919050565b601f8211156107b557600081815260208120601f850160051c810160208610156125235750805b601f850160051c820191505b8181101561165a5782815560010161252f565b815167ffffffffffffffff81111561255c5761255c611ef8565b6125708161256a84546124c2565b846124fc565b602080601f8311600181146125a5576000841561258d5750858301515b600019600386901b1c1916600185901b17855561165a565b600085815260208120601f198616915b828110156125d4578886015182559484019460019091019084016125b5565b50858210156125f25787850151600019600388901b60f8161c191681555b5050505050600190811b01905550565b634e487b7160e01b600052601160045260246000fd5b60006001820161262a5761262a612602565b5060010190565b634e487b7160e01b600052603260045260246000fd5b60208082526011908201527010da185c9a5d1e48139bdd08119bdd5b99607a1b604082015260600190565b8082018082111561043d5761043d612602565b808202811582820484141761043d5761043d612602565b6000826126b957634e487b7160e01b600052601260045260246000fd5b500490565b8181038181111561043d5761043d612602565b7f416363657373436f6e74726f6c3a206163636f756e74200000000000000000008152600083516127098160178501602088016120d6565b7001034b99036b4b9b9b4b733903937b6329607d1b601791840191820152835161273a8160288401602088016120d6565b01602801949350505050565b602081526000611e5260208301846120fa565b60008161276857612768612602565b50600019019056fea26469706673582212203366d8e2d0c4d325dfc2e497eedd9abc2ea3a70b2d5b0ec33397172f7fbb125064736f6c63430008110033",
  "linkReferences": {},
  "deployedLinkReferences": {}
}