{
  "_format": "hh-sol-artifact-1",
  "contractName": "DappFund",
  "sourceName": "contracts/DappFund.sol",
  "abi": [
    {
      "inputs": [
        {
          "internalType": "uint256",
          "name": "_charityTax",
          "type": "uint256"
        }
      ],
      "stateMutability": "nonpayable",
      "type": "constructor"
    },
    {
      "anonymous": false,
      "inputs": [
        {
          "indexed": true,
          "internalType": "address",
          "name": "previousOwner",
          "type": "address"
        },
        {
          "indexed": true,
          "internalType": "address",
          "name": "newOwner",
          "type": "address"
        }
      ],
      "name": "OwnershipTransferred",
      "type": "event"
    },
    {
      "anonymous": false,
      "inputs": [
        {
          "indexed": true,
          "internalType": "bytes32",
          "name": "role",
          "type": "bytes32"
        },
        {
          "indexed": true,
          "internalType": "bytes32",
          "name": "previousAdminRole",
          "type": "bytes32"
        },
        {
          "indexed": true,
          "internalType": "bytes32",
          "name": "newAdminRole",
          "type": "bytes32"
        }
      ],
      "name": "RoleAdminChanged",
      "type": "event"
    },
    {
      "anonymous": false,
      "inputs": [
        {
          "indexed": true,
          "internalType": "bytes32",
          "name": "role",
          "type": "bytes32"
        },
        {
          "indexed": true,
          "internalType": "address",
          "name": "account",
          "type": "address"
        },
        {
          "indexed": true,
          "internalType": "address",
          "name": "sender",
          "type": "address"
        }
      ],
      "name": "RoleGranted",
      "type": "event"
    },
    {
      "anonymous": false,
      "inputs": [
        {
          "indexed": true,
          "internalType": "bytes32",
          "name": "role",
          "type": "bytes32"
        },
        {
          "indexed": true,
          "internalType": "address",
          "name": "account",
          "type": "address"
        },
        {
          "indexed": true,
          "internalType": "address",
          "name": "sender",
          "type": "address"
        }
      ],
      "name": "RoleRevoked",
      "type": "event"
    },
    {
      "inputs": [],
      "name": "DEFAULT_ADMIN_ROLE",
      "outputs": [
        {
          "internalType": "bytes32",
          "name": "",
          "type": "bytes32"
        }
      ],
      "stateMutability": "view",
      "type": "function"
    },
    {
      "inputs": [
        {
          "internalType": "uint256",
          "name": "_taxPct",
          "type": "uint256"
        }
      ],
      "name": "changeTax",
      "outputs": [],
      "stateMutability": "nonpayable",
      "type": "function"
    },
    {
      "inputs": [
        {
          "internalType": "uint256",
          "name": "",
          "type": "uint256"
        }
      ],
      "name": "charityExist",
      "outputs": [
        {
          "internalType": "bool",
          "name": "",
          "type": "bool"
        }
      ],
      "stateMutability": "view",
      "type": "function"
    },
    {
      "inputs": [],
      "name": "charityTax",
      "outputs": [
        {
          "internalType": "uint256",
          "name": "",
          "type": "uint256"
        }
      ],
      "stateMutability": "view",
      "type": "function"
    },
    {
      "inputs": [
        {
          "internalType": "string",
          "name": "name",
          "type": "string"
        },
        {
          "internalType": "string",
          "name": "fullname",
          "type": "string"
        },
        {
          "internalType": "string",
          "name": "profile",
          "type": "string"
        },
        {
          "internalType": "string",
          "name": "description",
          "type": "string"
        },
        {
          "internalType": "string",
          "name": "image",
          "type": "string"
        },
        {
          "internalType": "uint256",
          "name": "amount",
          "type": "uint256"
        }
      ],
      "name": "createCharity",
      "outputs": [],
      "stateMutability": "nonpayable",
      "type": "function"
    },
    {
      "inputs": [
        {
          "internalType": "uint256",
          "name": "id",
          "type": "uint256"
        }
      ],
      "name": "deleteCharity",
      "outputs": [],
      "stateMutability": "nonpayable",
      "type": "function"
    },
    {
      "inputs": [
        {
          "internalType": "uint256",
          "name": "id",
          "type": "uint256"
        },
        {
          "internalType": "string",
          "name": "fullname",
          "type": "string"
        },
        {
          "internalType": "string",
          "name": "comment",
          "type": "string"
        }
      ],
      "name": "donate",
      "outputs": [],
      "stateMutability": "payable",
      "type": "function"
    },
    {
      "inputs": [],
      "name": "getCharities",
      "outputs": [
        {
          "components": [
            {
              "internalType": "uint256",
              "name": "id",
              "type": "uint256"
            },
            {
              "internalType": "address",
              "name": "owner",
              "type": "address"
            },
            {
              "internalType": "string",
              "name": "name",
              "type": "string"
            },
            {
              "internalType": "string",
              "name": "fullname",
              "type": "string"
            },
            {
              "internalType": "string",
              "name": "description",
              "type": "string"
            },
            {
              "internalType": "string",
              "name": "image",
              "type": "string"
            },
            {
              "internalType": "string",
              "name": "profile",
              "type": "string"
            },
            {
              "internalType": "uint256",
              "name": "amount",
              "type": "uint256"
            },
            {
              "internalType": "uint256",
              "name": "donations",
              "type": "uint256"
            },
            {
              "internalType": "uint256",
              "name": "raised",
              "type": "uint256"
            },
            {
              "internalType": "uint256",
              "name": "timestamp",
              "type": "uint256"
            },
            {
              "internalType": "bool",
              "name": "deleted",
              "type": "bool"
            },
            {
              "internalType": "bool",
              "name": "banned",
              "type": "bool"
            }
          ],
          "internalType": "struct DappFund.CharityStruct[]",
          "name": "Charities",
          "type": "tuple[]"
        }
      ],
      "stateMutability": "view",
      "type": "function"
    },
    {
      "inputs": [
        {
          "internalType": "uint256",
          "name": "id",
          "type": "uint256"
        }
      ],
      "name": "getCharity",
      "outputs": [
        {
          "components": [
            {
              "internalType": "uint256",
              "name": "id",
              "type": "uint256"
            },
            {
              "internalType": "address",
              "name": "owner",
              "type": "address"
            },
            {
              "internalType": "string",
              "name": "name",
              "type": "string"
            },
            {
              "internalType": "string",
              "name": "fullname",
              "type": "string"
            },
            {
              "internalType": "string",
              "name": "description",
              "type": "string"
            },
            {
              "internalType": "string",
              "name": "image",
              "type": "string"
            },
            {
              "internalType": "string",
              "name": "profile",
              "type": "string"
            },
            {
              "internalType": "uint256",
              "name": "amount",
              "type": "uint256"
            },
            {
              "internalType": "uint256",
              "name": "donations",
              "type": "uint256"
            },
            {
              "internalType": "uint256",
              "name": "raised",
              "type": "uint256"
            },
            {
              "internalType": "uint256",
              "name": "timestamp",
              "type": "uint256"
            },
            {
              "internalType": "bool",
              "name": "deleted",
              "type": "bool"
            },
            {
              "internalType": "bool",
              "name": "banned",
              "type": "bool"
            }
          ],
          "internalType": "struct DappFund.CharityStruct",
          "name": "",
          "type": "tuple"
        }
      ],
      "stateMutability": "view",
      "type": "function"
    },
    {
      "inputs": [],
      "name": "getMyCharities",
      "outputs": [
        {
          "components": [
            {
              "internalType": "uint256",
              "name": "id",
              "type": "uint256"
            },
            {
              "internalType": "address",
              "name": "owner",
              "type": "address"
            },
            {
              "internalType": "string",
              "name": "name",
              "type": "string"
            },
            {
              "internalType": "string",
              "name": "fullname",
              "type": "string"
            },
            {
              "internalType": "string",
              "name": "description",
              "type": "string"
            },
            {
              "internalType": "string",
              "name": "image",
              "type": "string"
            },
            {
              "internalType": "string",
              "name": "profile",
              "type": "string"
            },
            {
              "internalType": "uint256",
              "name": "amount",
              "type": "uint256"
            },
            {
              "internalType": "uint256",
              "name": "donations",
              "type": "uint256"
            },
            {
              "internalType": "uint256",
              "name": "raised",
              "type": "uint256"
            },
            {
              "internalType": "uint256",
              "name": "timestamp",
              "type": "uint256"
            },
            {
              "internalType": "bool",
              "name": "deleted",
              "type": "bool"
            },
            {
              "internalType": "bool",
              "name": "banned",
              "type": "bool"
            }
          ],
          "internalType": "struct DappFund.CharityStruct[]",
          "name": "Charities",
          "type": "tuple[]"
        }
      ],
      "stateMutability": "view",
      "type": "function"
    },
    {
      "inputs": [
        {
          "internalType": "bytes32",
          "name": "role",
          "type": "bytes32"
        }
      ],
      "name": "getRoleAdmin",
      "outputs": [
        {
          "internalType": "bytes32",
          "name": "",
          "type": "bytes32"
        }
      ],
      "stateMutability": "view",
      "type": "function"
    },
    {
      "inputs": [
        {
          "internalType": "uint256",
          "name": "id",
          "type": "uint256"
        }
      ],
      "name": "getSupports",
      "outputs": [
        {
          "components": [
            {
              "internalType": "uint256",
              "name": "id",
              "type": "uint256"
            },
            {
              "internalType": "uint256",
              "name": "cid",
              "type": "uint256"
            },
            {
              "internalType": "string",
              "name": "fullname",
              "type": "string"
            },
            {
              "internalType": "uint256",
              "name": "amount",
              "type": "uint256"
            },
            {
              "internalType": "uint256",
              "name": "timestamp",
              "type": "uint256"
            },
            {
              "internalType": "string",
              "name": "comment",
              "type": "string"
            },
            {
              "internalType": "address",
              "name": "supporter",
              "type": "address"
            }
          ],
          "internalType": "struct DappFund.SupportStruct[]",
          "name": "",
          "type": "tuple[]"
        }
      ],
      "stateMutability": "view",
      "type": "function"
    },
    {
      "inputs": [
        {
          "internalType": "bytes32",
          "name": "role",
          "type": "bytes32"
        },
        {
          "internalType": "address",
          "name": "account",
          "type": "address"
        }
      ],
      "name": "grantRole",
      "outputs": [],
      "stateMutability": "nonpayable",
      "type": "function"
    },
    {
      "inputs": [
        {
          "internalType": "bytes32",
          "name": "role",
          "type": "bytes32"
        },
        {
          "internalType": "address",
          "name": "account",
          "type": "address"
        }
      ],
      "name": "hasRole",
      "outputs": [
        {
          "internalType": "bool",
          "name": "",
          "type": "bool"
        }
      ],
      "stateMutability": "view",
      "type": "function"
    },
    {
      "inputs": [],
      "name": "owner",
      "outputs": [
        {
          "internalType": "address",
          "name": "",
          "type": "address"
        }
      ],
      "stateMutability": "view",
      "type": "function"
    },
    {
      "inputs": [],
      "name": "renounceOwnership",
      "outputs": [],
      "stateMutability": "nonpayable",
      "type": "function"
    },
    {
      "inputs": [
        {
          "internalType": "bytes32",
          "name": "role",
          "type": "bytes32"
        },
        {
          "internalType": "address",
          "name": "account",
          "type": "address"
        }
      ],
      "name": "renounceRole",
      "outputs": [],
      "stateMutability": "nonpayable",
      "type": "function"
    },
    {
      "inputs": [
        {
          "internalType": "bytes32",
          "name": "role",
          "type": "bytes32"
        },
        {
          "internalType": "address",
          "name": "account",
          "type": "address"
        }
      ],
      "name": "revokeRole",
      "outputs": [],
      "stateMutability": "nonpayable",
      "type": "function"
    },
    {
      "inputs": [
        {
          "internalType": "bytes4",
          "name": "interfaceId",
          "type": "bytes4"
        }
      ],
      "name": "supportsInterface",
      "outputs": [
        {
          "internalType": "bool",
          "name": "",
          "type": "bool"
        }
      ],
      "stateMutability": "view",
      "type": "function"
    },
    {
      "inputs": [
        {
          "internalType": "uint256",
          "name": "id",
          "type": "uint256"
        }
      ],
      "name": "toggleBan",
      "outputs": [],
      "stateMutability": "nonpayable",
      "type": "function"
    },
    {
      "inputs": [
        {
          "internalType": "address",
          "name": "newOwner",
          "type": "address"
        }
      ],
      "name": "transferOwnership",
      "outputs": [],
      "stateMutability": "nonpayable",
      "type": "function"
    },
    {
      "inputs": [
        {
          "internalType": "uint256",
          "name": "id",
          "type": "uint256"
        },
        {
          "internalType": "string",
          "name": "name",
          "type": "string"
        },
        {
          "internalType": "string",
          "name": "fullname",
          "type": "string"
        },
        {
          "internalType": "string",
          "name": "profile",
          "type": "string"
        },
        {
          "internalType": "string",
          "name": "description",
          "type": "string"
        },
        {
          "internalType": "string",
          "name": "image",
          "type": "string"
        },
        {
          "internalType": "uint256",
          "name": "amount",
          "type": "uint256"
        }
      ],
      "name": "updateCharity",
      "outputs": [],
      "stateMutability": "nonpayable",
      "type": "function"
    }
  ],
  "bytecode": "0x60806040523480156200001157600080fd5b5060405162002e1238038062002e12833981016040819052620000349162000098565b6200003f3362000048565b600455620000b2565b600080546001600160a01b038381166001600160a01b0319831681178455604051919092169283917f8be0079c531659141344cd1fd0a4f28419497f9722a3daafe3b4186f6b6457e09190a35050565b600060208284031215620000ab57600080fd5b5051919050565b612d5080620000c26000396000f3fe6080604052600436106101355760003560e01c806391d14854116100ab578063cdb532b91161006f578063cdb532b91461036c578063d547741f1461038c578063ed572471146103ac578063f2ccf839146103cc578063f2fde38b146103df578063fd67db81146103ff57600080fd5b806391d14854146102ba57806395024734146102da578063a217fddf14610307578063ac3238c11461031c578063b48c06dd1461033c57600080fd5b80633d784783116100fd5780633d784783146102105780633e45c8af1461022657806348112c6f146102465780635866192914610268578063715018a61461027d5780638da5cb5b1461029257600080fd5b806301ffc9a71461013a578063063165a31461016f578063248a9ca3146101915780632f2ff15d146101d057806336568abe146101f0575b600080fd5b34801561014657600080fd5b5061015a610155366004612478565b61042c565b60405190151581526020015b60405180910390f35b34801561017b57600080fd5b5061018f61018a366004612545565b610463565b005b34801561019d57600080fd5b506101c26101ac36600461261f565b6000908152600160208190526040909120015490565b604051908152602001610166565b3480156101dc57600080fd5b5061018f6101eb366004612654565b6107af565b3480156101fc57600080fd5b5061018f61020b366004612654565b6107da565b34801561021c57600080fd5b506101c260045481565b34801561023257600080fd5b5061018f61024136600461261f565b610858565b34801561025257600080fd5b5061025b6108c2565b60405161016691906127c4565b34801561027457600080fd5b5061025b610db4565b34801561028957600080fd5b5061018f6112a4565b34801561029e57600080fd5b506000546040516001600160a01b039091168152602001610166565b3480156102c657600080fd5b5061015a6102d5366004612654565b6112b8565b3480156102e657600080fd5b506102fa6102f536600461261f565b6112e3565b6040516101669190612826565b34801561031357600080fd5b506101c2600081565b34801561032857600080fd5b5061018f61033736600461261f565b6114b7565b34801561034857600080fd5b5061015a61035736600461261f565b60076020526000908152604090205460ff1681565b34801561037857600080fd5b5061018f61038736600461261f565b611519565b34801561039857600080fd5b5061018f6103a7366004612654565b6115c4565b3480156103b857600080fd5b5061018f6103c73660046128ec565b6115ea565b61018f6103da3660046129d1565b6118d5565b3480156103eb57600080fd5b5061018f6103fa366004612a3e565b611c0c565b34801561040b57600080fd5b5061041f61041a36600461261f565b611c85565b6040516101669190612a59565b60006001600160e01b03198216637965db0b60e01b148061045d57506301ffc9a760e01b6001600160e01b03198316145b92915050565b60008651116104b05760405162461bcd60e51b81526020600482015260146024820152734e616d652063616e6e6f7420626520656d70747960601b60448201526064015b60405180910390fd5b60008551116104fc5760405162461bcd60e51b815260206004820152601860248201527746756c6c6e616d652063616e6e6f7420626520656d70747960401b60448201526064016104a7565b600083511161054d5760405162461bcd60e51b815260206004820152601b60248201527f4465736372697074696f6e2063616e6e6f7420626520656d707479000000000060448201526064016104a7565b60008451116105985760405162461bcd60e51b815260206004820152601760248201527650726f66696c652063616e6e6f7420626520656d70747960481b60448201526064016104a7565b60008251116105e15760405162461bcd60e51b8152602060048201526015602482015274496d6167652063616e6e6f7420626520656d70747960581b60448201526064016104a7565b600081116106295760405162461bcd60e51b8152602060048201526015602482015274416d6f756e742063616e6e6f74206265207a65726f60581b60448201526064016104a7565b610637600280546001019055565b61063f612403565b600254815233602082015260408101879052606081018690526080810184905260a0810183905260c0810185905260e0810182905261067c611ff0565b610140820152805160009081526005602090815260409182902083518155908301516001820180546001600160a01b0319166001600160a01b039092169190911790559082015182919060028201906106d59082612aec565b50606082015160038201906106ea9082612aec565b50608082015160048201906106ff9082612aec565b5060a082015160058201906107149082612aec565b5060c082015160068201906107299082612aec565b5060e08201516007828101919091556101008084015160088401556101208401516009840155610140840151600a840155610160840151600b90930180546101809095015161ffff1990951693151561ff00191693909317931515029290921790559051600090815260209190915260409020805460ff19166001179055505050505050565b600082815260016020819052604090912001546107cb8161200f565b6107d58383612019565b505050565b6001600160a01b038116331461084a5760405162461bcd60e51b815260206004820152602f60248201527f416363657373436f6e74726f6c3a2063616e206f6e6c792072656e6f756e636560448201526e103937b632b9903337b91039b2b63360891b60648201526084016104a7565b6108548282612084565b5050565b6108606120eb565b600081118015610871575060648111155b6108bd5760405162461bcd60e51b815260206004820152601f60248201527f50657263656e74206d757374206265206265747765656e2030202d203130300060448201526064016104a7565b600455565b6060600060015b6002548111610952576000818152600560205260409020600b015460ff1615801561090b57506000818152600560205260409020600b0154610100900460ff16155b801561092d575060008181526005602052604090206007810154600990910154105b15610940578161093c81612bc2565b9250505b8061094a81612bc2565b9150506108c9565b508067ffffffffffffffff81111561096c5761096c6124a2565b6040519080825280602002602001820160405280156109a557816020015b610992612403565b81526020019060019003908161098a5790505b509150600060015b6002548111610dae576000818152600560205260409020600b015460ff161580156109ef57506000818152600560205260409020600b0154610100900460ff16155b8015610a11575060008181526005602052604090206007810154600990910154105b15610d9c5760008181526005602090815260409182902082516101a0810184528154815260018201546001600160a01b0316928101929092526002810180549293919291840191610a6190612a6c565b80601f0160208091040260200160405190810160405280929190818152602001828054610a8d90612a6c565b8015610ada5780601f10610aaf57610100808354040283529160200191610ada565b820191906000526020600020905b815481529060010190602001808311610abd57829003601f168201915b50505050508152602001600382018054610af390612a6c565b80601f0160208091040260200160405190810160405280929190818152602001828054610b1f90612a6c565b8015610b6c5780601f10610b4157610100808354040283529160200191610b6c565b820191906000526020600020905b815481529060010190602001808311610b4f57829003601f168201915b50505050508152602001600482018054610b8590612a6c565b80601f0160208091040260200160405190810160405280929190818152602001828054610bb190612a6c565b8015610bfe5780601f10610bd357610100808354040283529160200191610bfe565b820191906000526020600020905b815481529060010190602001808311610be157829003601f168201915b50505050508152602001600582018054610c1790612a6c565b80601f0160208091040260200160405190810160405280929190818152602001828054610c4390612a6c565b8015610c905780601f10610c6557610100808354040283529160200191610c90565b820191906000526020600020905b815481529060010190602001808311610c7357829003601f168201915b50505050508152602001600682018054610ca990612a6c565b80601f0160208091040260200160405190810160405280929190818152602001828054610cd590612a6c565b8015610d225780601f10610cf757610100808354040283529160200191610d22565b820191906000526020600020905b815481529060010190602001808311610d0557829003601f168201915b5050509183525050600782015460208201526008820154604082015260098201546060820152600a8201546080820152600b9091015460ff808216151560a084015261010090910416151560c0909101528483610d7e81612bc2565b945081518110610d9057610d90612bdb565b60200260200101819052505b80610da681612bc2565b9150506109ad565b50505090565b6060600060015b6002548111610e46576000818152600560205260409020600b015460ff16158015610dfc575060008181526005602052604090206007810154600990910154105b8015610e2157506000818152600560205260409020600101546001600160a01b031633145b15610e345781610e3081612bc2565b9250505b80610e3e81612bc2565b915050610dbb565b508067ffffffffffffffff811115610e6057610e606124a2565b604051908082528060200260200182016040528015610e9957816020015b610e86612403565b815260200190600190039081610e7e5790505b509150600060015b6002548111610dae576000818152600560205260409020600b015460ff16158015610ee2575060008181526005602052604090206007810154600990910154105b8015610f0757506000818152600560205260409020600101546001600160a01b031633145b156112925760008181526005602090815260409182902082516101a0810184528154815260018201546001600160a01b0316928101929092526002810180549293919291840191610f5790612a6c565b80601f0160208091040260200160405190810160405280929190818152602001828054610f8390612a6c565b8015610fd05780601f10610fa557610100808354040283529160200191610fd0565b820191906000526020600020905b815481529060010190602001808311610fb357829003601f168201915b50505050508152602001600382018054610fe990612a6c565b80601f016020809104026020016040519081016040528092919081815260200182805461101590612a6c565b80156110625780601f1061103757610100808354040283529160200191611062565b820191906000526020600020905b81548152906001019060200180831161104557829003601f168201915b5050505050815260200160048201805461107b90612a6c565b80601f01602080910402602001604051908101604052809291908181526020018280546110a790612a6c565b80156110f45780601f106110c9576101008083540402835291602001916110f4565b820191906000526020600020905b8154815290600101906020018083116110d757829003601f168201915b5050505050815260200160058201805461110d90612a6c565b80601f016020809104026020016040519081016040528092919081815260200182805461113990612a6c565b80156111865780601f1061115b57610100808354040283529160200191611186565b820191906000526020600020905b81548152906001019060200180831161116957829003601f168201915b5050505050815260200160068201805461119f90612a6c565b80601f01602080910402602001604051908101604052809291908181526020018280546111cb90612a6c565b80156112185780601f106111ed57610100808354040283529160200191611218565b820191906000526020600020905b8154815290600101906020018083116111fb57829003601f168201915b5050509183525050600782015460208201526008820154604082015260098201546060820152600a8201546080820152600b9091015460ff808216151560a084015261010090910416151560c090910152848361127481612bc2565b94508151811061128657611286612bdb565b60200260200101819052505b8061129c81612bc2565b915050610ea1565b6112ac6120eb565b6112b66000612145565b565b60009182526001602090815260408084206001600160a01b0393909316845291905290205460ff1690565b606060066000838152602001908152602001600020805480602002602001604051908101604052809291908181526020016000905b828210156114ac57838290600052602060002090600702016040518060e0016040529081600082015481526020016001820154815260200160028201805461135f90612a6c565b80601f016020809104026020016040519081016040528092919081815260200182805461138b90612a6c565b80156113d85780601f106113ad576101008083540402835291602001916113d8565b820191906000526020600020905b8154815290600101906020018083116113bb57829003601f168201915b50505050508152602001600382015481526020016004820154815260200160058201805461140590612a6c565b80601f016020809104026020016040519081016040528092919081815260200182805461143190612a6c565b801561147e5780601f106114535761010080835404028352916020019161147e565b820191906000526020600020905b81548152906001019060200180831161146157829003601f168201915b5050509183525050600691909101546001600160a01b03166020918201529082526001929092019101611318565b505050509050919050565b6114bf6120eb565b60008181526007602052604090205460ff166114ed5760405162461bcd60e51b81526004016104a790612bf1565b6000908152600560205260409020600b01805461ff001981166101009182900460ff1615909102179055565b60008181526007602052604090205460ff166115475760405162461bcd60e51b81526004016104a790612bf1565b6000818152600560205260409020600101546001600160a01b031633146115a65760405162461bcd60e51b8152602060048201526013602482015272556e617574686f72697a656420456e7469747960681b60448201526064016104a7565b6000908152600560205260409020600b01805460ff19166001179055565b600082815260016020819052604090912001546115e08161200f565b6107d58383612084565b60008781526007602052604090205460ff166116185760405162461bcd60e51b81526004016104a790612bf1565b6000878152600560205260409020600101546001600160a01b031633146116775760405162461bcd60e51b8152602060048201526013602482015272556e617574686f72697a656420456e7469747960681b60448201526064016104a7565b60008651116116bf5760405162461bcd60e51b81526020600482015260146024820152734e616d652063616e6e6f7420626520656d70747960601b60448201526064016104a7565b600085511161170b5760405162461bcd60e51b815260206004820152601860248201527746756c6c6e616d652063616e6e6f7420626520656d70747960401b60448201526064016104a7565b600083511161175c5760405162461bcd60e51b815260206004820152601b60248201527f4465736372697074696f6e2063616e6e6f7420626520656d707479000000000060448201526064016104a7565b60008451116117a75760405162461bcd60e51b815260206004820152601760248201527650726f66696c652063616e6e6f7420626520656d70747960481b60448201526064016104a7565b60008251116117f05760405162461bcd60e51b8152602060048201526015602482015274496d6167652063616e6e6f7420626520656d70747960581b60448201526064016104a7565b600081116118385760405162461bcd60e51b8152602060048201526015602482015274416d6f756e742063616e6e6f74206265207a65726f60581b60448201526064016104a7565b60008781526005602052604090206002016118538782612aec565b50600087815260056020526040902060030161186f8682612aec565b5060008781526005602081905260409091200161188c8382612aec565b506000878152600560205260409020600781018290556006016118af8582612aec565b5060008781526005602052604090206004016118cb8482612aec565b5050505050505050565b60008381526007602052604090205460ff166119035760405162461bcd60e51b81526004016104a790612bf1565b6000838152600560205260409020600b0154610100900460ff161561196a5760405162461bcd60e51b815260206004820152601d60248201527f436861726974792042616e6e65642c20636f6e746163742061646d696e00000060448201526064016104a7565b600034116119ba5760405162461bcd60e51b815260206004820152601760248201527f446f6e6174696f6e2063616e6e6f74206265207a65726f00000000000000000060448201526064016104a7565b6000838152600560205260409020600781015460099091015410611a205760405162461bcd60e51b815260206004820152601860248201527f43686172697479206275646765742066756c66696c6c6564000000000000000060448201526064016104a7565b611a2e600380546001019055565b611a776040518060e0016040528060008152602001600081526020016060815260200160008152602001600081526020016060815260200160006001600160a01b031681525090565b600354815260208101849052604081018390523360c082015234606082015260a08101829052611aa5611ff0565b6080820152600084815260066020908152604080832080546001818101835591855293839020855160079095020193845591840151918301919091558201518291906002820190611af69082612aec565b50606082015160038201556080820151600482015560a08201516005820190611b1f9082612aec565b5060c09190910151600690910180546001600160a01b0319166001600160a01b0390921691909117905560008481526005602052604081206009018054349290611b6a908490612c1c565b90915550506000848152600560205260408120600801805460019290611b91908490612c1c565b9091555050600454600090606490611ba99034612c2f565b611bb39190612c46565b90506000611bc18234612c68565b600087815260056020526040902060010154909150611be9906001600160a01b031682612195565b611c04611bfe6000546001600160a01b031690565b83612195565b505050505050565b611c146120eb565b6001600160a01b038116611c795760405162461bcd60e51b815260206004820152602660248201527f4f776e61626c653a206e6577206f776e657220697320746865207a65726f206160448201526564647265737360d01b60648201526084016104a7565b611c8281612145565b50565b611c8d612403565b60008281526005602090815260409182902082516101a0810184528154815260018201546001600160a01b0316928101929092526002810180549293919291840191611cd890612a6c565b80601f0160208091040260200160405190810160405280929190818152602001828054611d0490612a6c565b8015611d515780601f10611d2657610100808354040283529160200191611d51565b820191906000526020600020905b815481529060010190602001808311611d3457829003601f168201915b50505050508152602001600382018054611d6a90612a6c565b80601f0160208091040260200160405190810160405280929190818152602001828054611d9690612a6c565b8015611de35780601f10611db857610100808354040283529160200191611de3565b820191906000526020600020905b815481529060010190602001808311611dc657829003601f168201915b50505050508152602001600482018054611dfc90612a6c565b80601f0160208091040260200160405190810160405280929190818152602001828054611e2890612a6c565b8015611e755780601f10611e4a57610100808354040283529160200191611e75565b820191906000526020600020905b815481529060010190602001808311611e5857829003601f168201915b50505050508152602001600582018054611e8e90612a6c565b80601f0160208091040260200160405190810160405280929190818152602001828054611eba90612a6c565b8015611f075780601f10611edc57610100808354040283529160200191611f07565b820191906000526020600020905b815481529060010190602001808311611eea57829003601f168201915b50505050508152602001600682018054611f2090612a6c565b80601f0160208091040260200160405190810160405280929190818152602001828054611f4c90612a6c565b8015611f995780601f10611f6e57610100808354040283529160200191611f99565b820191906000526020600020905b815481529060010190602001808311611f7c57829003601f168201915b5050509183525050600782015460208201526008820154604082015260098201546060820152600a8201546080820152600b9091015460ff808216151560a084015261010090910416151560c09091015292915050565b6000611ffe426103e8612c2f565b61200a906103e8612c1c565b905090565b611c8281336121f5565b61202382826112b8565b6108545760008281526001602081815260408084206001600160a01b0386168086529252808420805460ff19169093179092559051339285917f2f8788117e7eff1d82e926ec794901d17c78024a50270940304540a733656f0d9190a45050565b61208e82826112b8565b156108545760008281526001602090815260408083206001600160a01b0385168085529252808320805460ff1916905551339285917ff6391f5c32d9c69d2a47ea670b442974b53935d1edc7fd64eb21e047a839171b9190a45050565b6000546001600160a01b031633146112b65760405162461bcd60e51b815260206004820181905260248201527f4f776e61626c653a2063616c6c6572206973206e6f7420746865206f776e657260448201526064016104a7565b600080546001600160a01b038381166001600160a01b0319831681178455604051919092169283917f8be0079c531659141344cd1fd0a4f28419497f9722a3daafe3b4186f6b6457e09190a35050565b6000826001600160a01b03168260405160006040518083038185875af1925050503d80600081146121e2576040519150601f19603f3d011682016040523d82523d6000602084013e6121e7565b606091505b50509050806107d557600080fd5b6121ff82826112b8565b6108545761220c8161224e565b612217836020612260565b604051602001612228929190612c7b565b60408051601f198184030181529082905262461bcd60e51b82526104a791600401612cf0565b606061045d6001600160a01b03831660145b6060600061226f836002612c2f565b61227a906002612c1c565b67ffffffffffffffff811115612292576122926124a2565b6040519080825280601f01601f1916602001820160405280156122bc576020820181803683370190505b509050600360fc1b816000815181106122d7576122d7612bdb565b60200101906001600160f81b031916908160001a905350600f60fb1b8160018151811061230657612306612bdb565b60200101906001600160f81b031916908160001a905350600061232a846002612c2f565b612335906001612c1c565b90505b60018111156123ad576f181899199a1a9b1b9c1cb0b131b232b360811b85600f166010811061236957612369612bdb565b1a60f81b82828151811061237f5761237f612bdb565b60200101906001600160f81b031916908160001a90535060049490941c936123a681612d03565b9050612338565b5083156123fc5760405162461bcd60e51b815260206004820181905260248201527f537472696e67733a20686578206c656e67746820696e73756666696369656e7460448201526064016104a7565b9392505050565b604051806101a001604052806000815260200160006001600160a01b031681526020016060815260200160608152602001606081526020016060815260200160608152602001600081526020016000815260200160008152602001600081526020016000151581526020016000151581525090565b60006020828403121561248a57600080fd5b81356001600160e01b0319811681146123fc57600080fd5b634e487b7160e01b600052604160045260246000fd5b600082601f8301126124c957600080fd5b813567ffffffffffffffff808211156124e4576124e46124a2565b604051601f8301601f19908116603f0116810190828211818310171561250c5761250c6124a2565b8160405283815286602085880101111561252557600080fd5b836020870160208301376000602085830101528094505050505092915050565b60008060008060008060c0878903121561255e57600080fd5b863567ffffffffffffffff8082111561257657600080fd5b6125828a838b016124b8565b9750602089013591508082111561259857600080fd5b6125a48a838b016124b8565b965060408901359150808211156125ba57600080fd5b6125c68a838b016124b8565b955060608901359150808211156125dc57600080fd5b6125e88a838b016124b8565b945060808901359150808211156125fe57600080fd5b5061260b89828a016124b8565b92505060a087013590509295509295509295565b60006020828403121561263157600080fd5b5035919050565b80356001600160a01b038116811461264f57600080fd5b919050565b6000806040838503121561266757600080fd5b8235915061267760208401612638565b90509250929050565b60005b8381101561269b578181015183820152602001612683565b50506000910152565b600081518084526126bc816020860160208601612680565b601f01601f19169290920160200192915050565b60006101a08251845260208301516126f360208601826001600160a01b03169052565b50604083015181604086015261270b828601826126a4565b9150506060830151848203606086015261272582826126a4565b9150506080830151848203608086015261273f82826126a4565b91505060a083015184820360a086015261275982826126a4565b91505060c083015184820360c086015261277382826126a4565b60e08581015190870152610100808601519087015261012080860151908701526101408086015190870152610160808601511515908701526101809485015115159490950193909352509192915050565b6000602080830181845280855180835260408601915060408160051b870101925083870160005b8281101561281957603f198886030184526128078583516126d0565b945092850192908501906001016127eb565b5092979650505050505050565b60006020808301818452808551808352604092508286019150828160051b87010184880160005b838110156128de57603f19898403018552815160e0815185528882015189860152878201518189870152612883828701826126a4565b9150506060808301518187015250608080830151818701525060a080830151868303828801526128b383826126a4565b60c0948501516001600160a01b0316979094019690965250509487019492509086019060010161284d565b509098975050505050505050565b600080600080600080600060e0888a03121561290757600080fd5b87359650602088013567ffffffffffffffff8082111561292657600080fd5b6129328b838c016124b8565b975060408a013591508082111561294857600080fd5b6129548b838c016124b8565b965060608a013591508082111561296a57600080fd5b6129768b838c016124b8565b955060808a013591508082111561298c57600080fd5b6129988b838c016124b8565b945060a08a01359150808211156129ae57600080fd5b506129bb8a828b016124b8565b92505060c0880135905092959891949750929550565b6000806000606084860312156129e657600080fd5b83359250602084013567ffffffffffffffff80821115612a0557600080fd5b612a11878388016124b8565b93506040860135915080821115612a2757600080fd5b50612a34868287016124b8565b9150509250925092565b600060208284031215612a5057600080fd5b6123fc82612638565b6020815260006123fc60208301846126d0565b600181811c90821680612a8057607f821691505b602082108103612aa057634e487b7160e01b600052602260045260246000fd5b50919050565b601f8211156107d557600081815260208120601f850160051c81016020861015612acd5750805b601f850160051c820191505b81811015611c0457828155600101612ad9565b815167ffffffffffffffff811115612b0657612b066124a2565b612b1a81612b148454612a6c565b84612aa6565b602080601f831160018114612b4f5760008415612b375750858301515b600019600386901b1c1916600185901b178555611c04565b600085815260208120601f198616915b82811015612b7e57888601518255948401946001909101908401612b5f565b5085821015612b9c5787850151600019600388901b60f8161c191681555b5050505050600190811b01905550565b634e487b7160e01b600052601160045260246000fd5b600060018201612bd457612bd4612bac565b5060010190565b634e487b7160e01b600052603260045260246000fd5b60208082526011908201527010da185c9a5d1e48139bdd08119bdd5b99607a1b604082015260600190565b8082018082111561045d5761045d612bac565b808202811582820484141761045d5761045d612bac565b600082612c6357634e487b7160e01b600052601260045260246000fd5b500490565b8181038181111561045d5761045d612bac565b7f416363657373436f6e74726f6c3a206163636f756e7420000000000000000000815260008351612cb3816017850160208801612680565b7001034b99036b4b9b9b4b733903937b6329607d1b6017918401918201528351612ce4816028840160208801612680565b01602801949350505050565b6020815260006123fc60208301846126a4565b600081612d1257612d12612bac565b50600019019056fea26469706673582212201bd42c007cac0b23add0ce02ce212beface1bc95200654faa5bd83dea97972a164736f6c63430008110033",
  "linkReferences": {},
  "deployedLinkReferences": {}
}