{
  "_format": "hh-sol-artifact-1",
  "contractName": "DappFundX",
  "sourceName": "contracts/DappFundX.sol",
  "abi": [
    {
      "inputs": [
        {
          "internalType": "uint256",
          "name": "_charityTax",
          "type": "uint256"
        }
      ],
      "stateMutability": "nonpayable",
      "type": "constructor"
    },
    {
      "anonymous": false,
      "inputs": [
        {
          "indexed": true,
          "internalType": "address",
          "name": "previousOwner",
          "type": "address"
        },
        {
          "indexed": true,
          "internalType": "address",
          "name": "newOwner",
          "type": "address"
        }
      ],
      "name": "OwnershipTransferred",
      "type": "event"
    },
    {
      "inputs": [
        {
          "internalType": "uint256",
          "name": "_taxPct",
          "type": "uint256"
        }
      ],
      "name": "changeTax",
      "outputs": [],
      "stateMutability": "nonpayable",
      "type": "function"
    },
    {
      "inputs": [
        {
          "internalType": "uint256",
          "name": "",
          "type": "uint256"
        }
      ],
      "name": "charityExist",
      "outputs": [
        {
          "internalType": "bool",
          "name": "",
          "type": "bool"
        }
      ],
      "stateMutability": "view",
      "type": "function"
    },
    {
      "inputs": [],
      "name": "charityTax",
      "outputs": [
        {
          "internalType": "uint256",
          "name": "",
          "type": "uint256"
        }
      ],
      "stateMutability": "view",
      "type": "function"
    },
    {
      "inputs": [
        {
          "internalType": "string",
          "name": "name",
          "type": "string"
        },
        {
          "internalType": "string",
          "name": "fullname",
          "type": "string"
        },
        {
          "internalType": "string",
          "name": "profile",
          "type": "string"
        },
        {
          "internalType": "string",
          "name": "description",
          "type": "string"
        },
        {
          "internalType": "string",
          "name": "image",
          "type": "string"
        },
        {
          "internalType": "uint256",
          "name": "amount",
          "type": "uint256"
        }
      ],
      "name": "createCharity",
      "outputs": [],
      "stateMutability": "nonpayable",
      "type": "function"
    },
    {
      "inputs": [
        {
          "internalType": "uint256",
          "name": "id",
          "type": "uint256"
        }
      ],
      "name": "deleteCharity",
      "outputs": [],
      "stateMutability": "nonpayable",
      "type": "function"
    },
    {
      "inputs": [
        {
          "internalType": "uint256",
          "name": "id",
          "type": "uint256"
        },
        {
          "internalType": "string",
          "name": "fullname",
          "type": "string"
        },
        {
          "internalType": "string",
          "name": "comment",
          "type": "string"
        }
      ],
      "name": "donate",
      "outputs": [],
      "stateMutability": "payable",
      "type": "function"
    },
    {
      "inputs": [],
      "name": "getCharities",
      "outputs": [
        {
          "components": [
            {
              "internalType": "uint256",
              "name": "id",
              "type": "uint256"
            },
            {
              "internalType": "address",
              "name": "owner",
              "type": "address"
            },
            {
              "internalType": "string",
              "name": "name",
              "type": "string"
            },
            {
              "internalType": "string",
              "name": "fullname",
              "type": "string"
            },
            {
              "internalType": "string",
              "name": "description",
              "type": "string"
            },
            {
              "internalType": "string",
              "name": "image",
              "type": "string"
            },
            {
              "internalType": "string",
              "name": "profile",
              "type": "string"
            },
            {
              "internalType": "uint256",
              "name": "amount",
              "type": "uint256"
            },
            {
              "internalType": "uint256",
              "name": "donations",
              "type": "uint256"
            },
            {
              "internalType": "uint256",
              "name": "raised",
              "type": "uint256"
            },
            {
              "internalType": "uint256",
              "name": "timestamp",
              "type": "uint256"
            },
            {
              "internalType": "bool",
              "name": "deleted",
              "type": "bool"
            },
            {
              "internalType": "bool",
              "name": "banned",
              "type": "bool"
            }
          ],
          "internalType": "struct DappFundX.CharityStruct[]",
          "name": "Charities",
          "type": "tuple[]"
        }
      ],
      "stateMutability": "view",
      "type": "function"
    },
    {
      "inputs": [
        {
          "internalType": "uint256",
          "name": "id",
          "type": "uint256"
        }
      ],
      "name": "getCharity",
      "outputs": [
        {
          "components": [
            {
              "internalType": "uint256",
              "name": "id",
              "type": "uint256"
            },
            {
              "internalType": "address",
              "name": "owner",
              "type": "address"
            },
            {
              "internalType": "string",
              "name": "name",
              "type": "string"
            },
            {
              "internalType": "string",
              "name": "fullname",
              "type": "string"
            },
            {
              "internalType": "string",
              "name": "description",
              "type": "string"
            },
            {
              "internalType": "string",
              "name": "image",
              "type": "string"
            },
            {
              "internalType": "string",
              "name": "profile",
              "type": "string"
            },
            {
              "internalType": "uint256",
              "name": "amount",
              "type": "uint256"
            },
            {
              "internalType": "uint256",
              "name": "donations",
              "type": "uint256"
            },
            {
              "internalType": "uint256",
              "name": "raised",
              "type": "uint256"
            },
            {
              "internalType": "uint256",
              "name": "timestamp",
              "type": "uint256"
            },
            {
              "internalType": "bool",
              "name": "deleted",
              "type": "bool"
            },
            {
              "internalType": "bool",
              "name": "banned",
              "type": "bool"
            }
          ],
          "internalType": "struct DappFundX.CharityStruct",
          "name": "",
          "type": "tuple"
        }
      ],
      "stateMutability": "view",
      "type": "function"
    },
    {
      "inputs": [],
      "name": "getMyCharities",
      "outputs": [
        {
          "components": [
            {
              "internalType": "uint256",
              "name": "id",
              "type": "uint256"
            },
            {
              "internalType": "address",
              "name": "owner",
              "type": "address"
            },
            {
              "internalType": "string",
              "name": "name",
              "type": "string"
            },
            {
              "internalType": "string",
              "name": "fullname",
              "type": "string"
            },
            {
              "internalType": "string",
              "name": "description",
              "type": "string"
            },
            {
              "internalType": "string",
              "name": "image",
              "type": "string"
            },
            {
              "internalType": "string",
              "name": "profile",
              "type": "string"
            },
            {
              "internalType": "uint256",
              "name": "amount",
              "type": "uint256"
            },
            {
              "internalType": "uint256",
              "name": "donations",
              "type": "uint256"
            },
            {
              "internalType": "uint256",
              "name": "raised",
              "type": "uint256"
            },
            {
              "internalType": "uint256",
              "name": "timestamp",
              "type": "uint256"
            },
            {
              "internalType": "bool",
              "name": "deleted",
              "type": "bool"
            },
            {
              "internalType": "bool",
              "name": "banned",
              "type": "bool"
            }
          ],
          "internalType": "struct DappFundX.CharityStruct[]",
          "name": "Charities",
          "type": "tuple[]"
        }
      ],
      "stateMutability": "view",
      "type": "function"
    },
    {
      "inputs": [
        {
          "internalType": "uint256",
          "name": "id",
          "type": "uint256"
        }
      ],
      "name": "getSupperters",
      "outputs": [
        {
          "components": [
            {
              "internalType": "uint256",
              "name": "id",
              "type": "uint256"
            },
            {
              "internalType": "uint256",
              "name": "cid",
              "type": "uint256"
            },
            {
              "internalType": "string",
              "name": "fullname",
              "type": "string"
            },
            {
              "internalType": "uint256",
              "name": "amount",
              "type": "uint256"
            },
            {
              "internalType": "uint256",
              "name": "timestamp",
              "type": "uint256"
            },
            {
              "internalType": "string",
              "name": "comment",
              "type": "string"
            },
            {
              "internalType": "address",
              "name": "supporter",
              "type": "address"
            }
          ],
          "internalType": "struct DappFundX.SupportStruct[]",
          "name": "",
          "type": "tuple[]"
        }
      ],
      "stateMutability": "view",
      "type": "function"
    },
    {
      "inputs": [],
      "name": "owner",
      "outputs": [
        {
          "internalType": "address",
          "name": "",
          "type": "address"
        }
      ],
      "stateMutability": "view",
      "type": "function"
    },
    {
      "inputs": [],
      "name": "renounceOwnership",
      "outputs": [],
      "stateMutability": "nonpayable",
      "type": "function"
    },
    {
      "inputs": [
        {
          "internalType": "uint256",
          "name": "id",
          "type": "uint256"
        }
      ],
      "name": "toggleBan",
      "outputs": [],
      "stateMutability": "nonpayable",
      "type": "function"
    },
    {
      "inputs": [
        {
          "internalType": "address",
          "name": "newOwner",
          "type": "address"
        }
      ],
      "name": "transferOwnership",
      "outputs": [],
      "stateMutability": "nonpayable",
      "type": "function"
    },
    {
      "inputs": [
        {
          "internalType": "uint256",
          "name": "id",
          "type": "uint256"
        },
        {
          "internalType": "string",
          "name": "name",
          "type": "string"
        },
        {
          "internalType": "string",
          "name": "fullname",
          "type": "string"
        },
        {
          "internalType": "string",
          "name": "profile",
          "type": "string"
        },
        {
          "internalType": "string",
          "name": "description",
          "type": "string"
        },
        {
          "internalType": "string",
          "name": "image",
          "type": "string"
        },
        {
          "internalType": "uint256",
          "name": "amount",
          "type": "uint256"
        }
      ],
      "name": "updateCharity",
      "outputs": [],
      "stateMutability": "nonpayable",
      "type": "function"
    }
  ],
  "bytecode": "0x60806040523480156200001157600080fd5b506040516200278e3803806200278e833981016040819052620000349162000098565b6200003f3362000048565b600355620000b2565b600080546001600160a01b038381166001600160a01b0319831681178455604051919092169283917f8be0079c531659141344cd1fd0a4f28419497f9722a3daafe3b4186f6b6457e09190a35050565b600060208284031215620000ab57600080fd5b5051919050565b6126cc80620000c26000396000f3fe6080604052600436106100e85760003560e01c80638da5cb5b1161008a578063ed57247111610059578063ed57247114610279578063f2ccf83914610299578063f2fde38b146102ac578063fd67db81146102cc57600080fd5b80638da5cb5b146101d1578063ac3238c1146101f9578063b48c06dd14610219578063cdb532b91461025957600080fd5b806348112c6f116100c657806348112c6f14610158578063586619291461017a578063715018a61461018f578063827589d0146101a457600080fd5b8063063165a3146100ed5780633d7847831461010f5780633e45c8af14610138575b600080fd5b3480156100f957600080fd5b5061010d610108366004611f97565b6102f9565b005b34801561011b57600080fd5b5061012560035481565b6040519081526020015b60405180910390f35b34801561014457600080fd5b5061010d610153366004612071565b61063f565b34801561016457600080fd5b5061016d6106a9565b60405161012f91906121c4565b34801561018657600080fd5b5061016d610b57565b34801561019b57600080fd5b5061010d611049565b3480156101b057600080fd5b506101c46101bf366004612071565b61105d565b60405161012f9190612226565b3480156101dd57600080fd5b506000546040516001600160a01b03909116815260200161012f565b34801561020557600080fd5b5061010d610214366004612071565b611231565b34801561022557600080fd5b50610249610234366004612071565b60066020526000908152604090205460ff1681565b604051901515815260200161012f565b34801561026557600080fd5b5061010d610274366004612071565b611293565b34801561028557600080fd5b5061010d6102943660046122ec565b61133e565b61010d6102a73660046123d1565b611636565b3480156102b857600080fd5b5061010d6102c736600461243e565b61196d565b3480156102d857600080fd5b506102ec6102e7366004612071565b6119e6565b60405161012f919061246e565b60008651116103465760405162461bcd60e51b81526020600482015260146024820152734e616d652063616e6e6f7420626520656d70747960601b60448201526064015b60405180910390fd5b60008551116103925760405162461bcd60e51b815260206004820152601860248201527746756c6c6e616d652063616e6e6f7420626520656d70747960401b604482015260640161033d565b60008351116103e35760405162461bcd60e51b815260206004820152601b60248201527f4465736372697074696f6e2063616e6e6f7420626520656d7074790000000000604482015260640161033d565b600084511161042e5760405162461bcd60e51b815260206004820152601760248201527650726f66696c652063616e6e6f7420626520656d70747960481b604482015260640161033d565b60008251116104775760405162461bcd60e51b8152602060048201526015602482015274496d6167652063616e6e6f7420626520656d70747960581b604482015260640161033d565b600081116104bf5760405162461bcd60e51b8152602060048201526015602482015274416d6f756e742063616e6e6f74206265207a65726f60581b604482015260640161033d565b6104cd600180546001019055565b6104d5611e7f565b600154815233602082015260408101879052606081018690526080810184905260a0810183905260c0810185905260e08101829052610512611d51565b610140820152805160009081526004602090815260409182902083518155908301516001820180546001600160a01b0319166001600160a01b0390921691909117905590820151829190600282019061056b9082612501565b50606082015160038201906105809082612501565b50608082015160048201906105959082612501565b5060a082015160058201906105aa9082612501565b5060c082015160068201906105bf9082612501565b5060e082015160078201556101008083015160088301556101208301516009830155610140830151600a830155610160830151600b90920180546101809094015161ffff1990941692151561ff0019169290921792151502919091179055516000908152600660205260409020805460ff19166001179055505050505050565b610647611d70565b600081118015610658575060648111155b6106a45760405162461bcd60e51b815260206004820152601f60248201527f50657263656e74206d757374206265206265747765656e2031202d2031303000604482015260640161033d565b600355565b6060600060015b6001548111610717576000818152600460205260409020600b015460ff161580156106f257506000818152600460205260409020600b0154610100900460ff16155b156107055781610701816125d7565b9250505b8061070f816125d7565b9150506106b0565b508067ffffffffffffffff81111561073157610731611ef4565b60405190808252806020026020018201604052801561076a57816020015b610757611e7f565b81526020019060019003908161074f5790505b509150600060015b6001548111610b51576000818152600460205260409020600b015460ff161580156107b457506000818152600460205260409020600b0154610100900460ff16155b15610b3f5760008181526004602090815260409182902082516101a0810184528154815260018201546001600160a01b031692810192909252600281018054929391929184019161080490612481565b80601f016020809104026020016040519081016040528092919081815260200182805461083090612481565b801561087d5780601f106108525761010080835404028352916020019161087d565b820191906000526020600020905b81548152906001019060200180831161086057829003601f168201915b5050505050815260200160038201805461089690612481565b80601f01602080910402602001604051908101604052809291908181526020018280546108c290612481565b801561090f5780601f106108e45761010080835404028352916020019161090f565b820191906000526020600020905b8154815290600101906020018083116108f257829003601f168201915b5050505050815260200160048201805461092890612481565b80601f016020809104026020016040519081016040528092919081815260200182805461095490612481565b80156109a15780601f10610976576101008083540402835291602001916109a1565b820191906000526020600020905b81548152906001019060200180831161098457829003601f168201915b505050505081526020016005820180546109ba90612481565b80601f01602080910402602001604051908101604052809291908181526020018280546109e690612481565b8015610a335780601f10610a0857610100808354040283529160200191610a33565b820191906000526020600020905b815481529060010190602001808311610a1657829003601f168201915b50505050508152602001600682018054610a4c90612481565b80601f0160208091040260200160405190810160405280929190818152602001828054610a7890612481565b8015610ac55780601f10610a9a57610100808354040283529160200191610ac5565b820191906000526020600020905b815481529060010190602001808311610aa857829003601f168201915b5050509183525050600782015460208201526008820154604082015260098201546060820152600a8201546080820152600b9091015460ff808216151560a084015261010090910416151560c0909101528483610b21816125d7565b945081518110610b3357610b336125f0565b60200260200101819052505b80610b49816125d7565b915050610772565b50505090565b6060600060015b6001548111610bea576000818152600460205260409020600b015460ff16158015610ba057506000818152600460205260409020600b0154610100900460ff16155b8015610bc557506000818152600460205260409020600101546001600160a01b031633145b15610bd85781610bd4816125d7565b9250505b80610be2816125d7565b915050610b5e565b508067ffffffffffffffff811115610c0457610c04611ef4565b604051908082528060200260200182016040528015610c3d57816020015b610c2a611e7f565b815260200190600190039081610c225790505b509150600060015b6001548111610b51576000818152600460205260409020600b015460ff16158015610c8757506000818152600460205260409020600b0154610100900460ff16155b8015610cac57506000818152600460205260409020600101546001600160a01b031633145b156110375760008181526004602090815260409182902082516101a0810184528154815260018201546001600160a01b0316928101929092526002810180549293919291840191610cfc90612481565b80601f0160208091040260200160405190810160405280929190818152602001828054610d2890612481565b8015610d755780601f10610d4a57610100808354040283529160200191610d75565b820191906000526020600020905b815481529060010190602001808311610d5857829003601f168201915b50505050508152602001600382018054610d8e90612481565b80601f0160208091040260200160405190810160405280929190818152602001828054610dba90612481565b8015610e075780601f10610ddc57610100808354040283529160200191610e07565b820191906000526020600020905b815481529060010190602001808311610dea57829003601f168201915b50505050508152602001600482018054610e2090612481565b80601f0160208091040260200160405190810160405280929190818152602001828054610e4c90612481565b8015610e995780601f10610e6e57610100808354040283529160200191610e99565b820191906000526020600020905b815481529060010190602001808311610e7c57829003601f168201915b50505050508152602001600582018054610eb290612481565b80601f0160208091040260200160405190810160405280929190818152602001828054610ede90612481565b8015610f2b5780601f10610f0057610100808354040283529160200191610f2b565b820191906000526020600020905b815481529060010190602001808311610f0e57829003601f168201915b50505050508152602001600682018054610f4490612481565b80601f0160208091040260200160405190810160405280929190818152602001828054610f7090612481565b8015610fbd5780601f10610f9257610100808354040283529160200191610fbd565b820191906000526020600020905b815481529060010190602001808311610fa057829003601f168201915b5050509183525050600782015460208201526008820154604082015260098201546060820152600a8201546080820152600b9091015460ff808216151560a084015261010090910416151560c0909101528483611019816125d7565b94508151811061102b5761102b6125f0565b60200260200101819052505b80611041816125d7565b915050610c45565b611051611d70565b61105b6000611dca565b565b606060056000838152602001908152602001600020805480602002602001604051908101604052809291908181526020016000905b8282101561122657838290600052602060002090600702016040518060e001604052908160008201548152602001600182015481526020016002820180546110d990612481565b80601f016020809104026020016040519081016040528092919081815260200182805461110590612481565b80156111525780601f1061112757610100808354040283529160200191611152565b820191906000526020600020905b81548152906001019060200180831161113557829003601f168201915b50505050508152602001600382015481526020016004820154815260200160058201805461117f90612481565b80601f01602080910402602001604051908101604052809291908181526020018280546111ab90612481565b80156111f85780601f106111cd576101008083540402835291602001916111f8565b820191906000526020600020905b8154815290600101906020018083116111db57829003601f168201915b5050509183525050600691909101546001600160a01b03166020918201529082526001929092019101611092565b505050509050919050565b611239611d70565b60008181526006602052604090205460ff166112675760405162461bcd60e51b815260040161033d90612606565b6000908152600460205260409020600b01805461ff001981166101009182900460ff1615909102179055565b60008181526006602052604090205460ff166112c15760405162461bcd60e51b815260040161033d90612606565b6000818152600460205260409020600101546001600160a01b031633146113205760405162461bcd60e51b8152602060048201526013602482015272556e617574686f72697a656420456e7469747960681b604482015260640161033d565b6000908152600460205260409020600b01805460ff19166001179055565b60008781526006602052604090205460ff1661136c5760405162461bcd60e51b815260040161033d90612606565b6000878152600460205260409020600101546001600160a01b031633146113cb5760405162461bcd60e51b8152602060048201526013602482015272556e617574686f72697a656420456e7469747960681b604482015260640161033d565b60008651116114135760405162461bcd60e51b81526020600482015260146024820152734e616d652063616e6e6f7420626520656d70747960601b604482015260640161033d565b600085511161145f5760405162461bcd60e51b815260206004820152601860248201527746756c6c6e616d652063616e6e6f7420626520656d70747960401b604482015260640161033d565b60008351116114b05760405162461bcd60e51b815260206004820152601b60248201527f4465736372697074696f6e2063616e6e6f7420626520656d7074790000000000604482015260640161033d565b60008451116114fb5760405162461bcd60e51b815260206004820152601760248201527650726f66696c652063616e6e6f7420626520656d70747960481b604482015260640161033d565b60008251116115445760405162461bcd60e51b8152602060048201526015602482015274496d6167652063616e6e6f7420626520656d70747960581b604482015260640161033d565b6000811161158c5760405162461bcd60e51b8152602060048201526015602482015274416d6f756e742063616e6e6f74206265207a65726f60581b604482015260640161033d565b60008781526004602052604090206002016115a78782612501565b5060008781526004602052604090206003016115c38682612501565b506000878152600460208190526040909120016115e08482612501565b5060008781526004602052604090206005016115fc8382612501565b5060008781526004602052604090206006016116188582612501565b50600096875260046020526040909620600701959095555050505050565b60008381526006602052604090205460ff166116645760405162461bcd60e51b815260040161033d90612606565b6000838152600460205260409020600b0154610100900460ff16156116cb5760405162461bcd60e51b815260206004820152601d60248201527f436861726974792042616e6e65642c20636f6e746163742061646d696e000000604482015260640161033d565b6000341161171b5760405162461bcd60e51b815260206004820152601760248201527f446f6e6174696f6e2063616e6e6f74206265207a65726f000000000000000000604482015260640161033d565b60008381526004602052604090206007810154600990910154106117815760405162461bcd60e51b815260206004820152601860248201527f43686172697479206275646765742066756c66696c6c65640000000000000000604482015260640161033d565b61178f600280546001019055565b6117d86040518060e0016040528060008152602001600081526020016060815260200160008152602001600081526020016060815260200160006001600160a01b031681525090565b600254815260208101849052604081018390523360c082015234606082015260a08101829052611806611d51565b60808201526000848152600560209081526040808320805460018181018355918552938390208551600790950201938455918401519183019190915582015182919060028201906118579082612501565b50606082015160038201556080820151600482015560a082015160058201906118809082612501565b5060c09190910151600690910180546001600160a01b0319166001600160a01b03909216919091179055600084815260046020526040812060090180543492906118cb908490612631565b909155505060008481526004602052604081206008018054600192906118f2908490612631565b909155505060035460009060649061190a903461264a565b6119149190612661565b905060006119228234612683565b60008781526004602052604090206001015490915061194a906001600160a01b031682611e1a565b61196561195f6000546001600160a01b031690565b83611e1a565b505050505050565b611975611d70565b6001600160a01b0381166119da5760405162461bcd60e51b815260206004820152602660248201527f4f776e61626c653a206e6577206f776e657220697320746865207a65726f206160448201526564647265737360d01b606482015260840161033d565b6119e381611dca565b50565b6119ee611e7f565b60008281526004602090815260409182902082516101a0810184528154815260018201546001600160a01b0316928101929092526002810180549293919291840191611a3990612481565b80601f0160208091040260200160405190810160405280929190818152602001828054611a6590612481565b8015611ab25780601f10611a8757610100808354040283529160200191611ab2565b820191906000526020600020905b815481529060010190602001808311611a9557829003601f168201915b50505050508152602001600382018054611acb90612481565b80601f0160208091040260200160405190810160405280929190818152602001828054611af790612481565b8015611b445780601f10611b1957610100808354040283529160200191611b44565b820191906000526020600020905b815481529060010190602001808311611b2757829003601f168201915b50505050508152602001600482018054611b5d90612481565b80601f0160208091040260200160405190810160405280929190818152602001828054611b8990612481565b8015611bd65780601f10611bab57610100808354040283529160200191611bd6565b820191906000526020600020905b815481529060010190602001808311611bb957829003601f168201915b50505050508152602001600582018054611bef90612481565b80601f0160208091040260200160405190810160405280929190818152602001828054611c1b90612481565b8015611c685780601f10611c3d57610100808354040283529160200191611c68565b820191906000526020600020905b815481529060010190602001808311611c4b57829003601f168201915b50505050508152602001600682018054611c8190612481565b80601f0160208091040260200160405190810160405280929190818152602001828054611cad90612481565b8015611cfa5780601f10611ccf57610100808354040283529160200191611cfa565b820191906000526020600020905b815481529060010190602001808311611cdd57829003601f168201915b5050509183525050600782015460208201526008820154604082015260098201546060820152600a8201546080820152600b9091015460ff808216151560a084015261010090910416151560c09091015292915050565b6000611d5f426103e861264a565b611d6b906103e8612631565b905090565b6000546001600160a01b0316331461105b5760405162461bcd60e51b815260206004820181905260248201527f4f776e61626c653a2063616c6c6572206973206e6f7420746865206f776e6572604482015260640161033d565b600080546001600160a01b038381166001600160a01b0319831681178455604051919092169283917f8be0079c531659141344cd1fd0a4f28419497f9722a3daafe3b4186f6b6457e09190a35050565b6000826001600160a01b03168260405160006040518083038185875af1925050503d8060008114611e67576040519150601f19603f3d011682016040523d82523d6000602084013e611e6c565b606091505b5050905080611e7a57600080fd5b505050565b604051806101a001604052806000815260200160006001600160a01b031681526020016060815260200160608152602001606081526020016060815260200160608152602001600081526020016000815260200160008152602001600081526020016000151581526020016000151581525090565b634e487b7160e01b600052604160045260246000fd5b600082601f830112611f1b57600080fd5b813567ffffffffffffffff80821115611f3657611f36611ef4565b604051601f8301601f19908116603f01168101908282118183101715611f5e57611f5e611ef4565b81604052838152866020858801011115611f7757600080fd5b836020870160208301376000602085830101528094505050505092915050565b60008060008060008060c08789031215611fb057600080fd5b863567ffffffffffffffff80821115611fc857600080fd5b611fd48a838b01611f0a565b97506020890135915080821115611fea57600080fd5b611ff68a838b01611f0a565b9650604089013591508082111561200c57600080fd5b6120188a838b01611f0a565b9550606089013591508082111561202e57600080fd5b61203a8a838b01611f0a565b9450608089013591508082111561205057600080fd5b5061205d89828a01611f0a565b92505060a087013590509295509295509295565b60006020828403121561208357600080fd5b5035919050565b6000815180845260005b818110156120b057602081850181015186830182015201612094565b506000602082860101526020601f19601f83011685010191505092915050565b60006101a08251845260208301516120f360208601826001600160a01b03169052565b50604083015181604086015261210b8286018261208a565b91505060608301518482036060860152612125828261208a565b9150506080830151848203608086015261213f828261208a565b91505060a083015184820360a0860152612159828261208a565b91505060c083015184820360c0860152612173828261208a565b60e08581015190870152610100808601519087015261012080860151908701526101408086015190870152610160808601511515908701526101809485015115159490950193909352509192915050565b6000602080830181845280855180835260408601915060408160051b870101925083870160005b8281101561221957603f198886030184526122078583516120d0565b945092850192908501906001016121eb565b5092979650505050505050565b60006020808301818452808551808352604092508286019150828160051b87010184880160005b838110156122de57603f19898403018552815160e08151855288820151898601528782015181898701526122838287018261208a565b9150506060808301518187015250608080830151818701525060a080830151868303828801526122b3838261208a565b60c0948501516001600160a01b0316979094019690965250509487019492509086019060010161224d565b509098975050505050505050565b600080600080600080600060e0888a03121561230757600080fd5b87359650602088013567ffffffffffffffff8082111561232657600080fd5b6123328b838c01611f0a565b975060408a013591508082111561234857600080fd5b6123548b838c01611f0a565b965060608a013591508082111561236a57600080fd5b6123768b838c01611f0a565b955060808a013591508082111561238c57600080fd5b6123988b838c01611f0a565b945060a08a01359150808211156123ae57600080fd5b506123bb8a828b01611f0a565b92505060c0880135905092959891949750929550565b6000806000606084860312156123e657600080fd5b83359250602084013567ffffffffffffffff8082111561240557600080fd5b61241187838801611f0a565b9350604086013591508082111561242757600080fd5b5061243486828701611f0a565b9150509250925092565b60006020828403121561245057600080fd5b81356001600160a01b038116811461246757600080fd5b9392505050565b60208152600061246760208301846120d0565b600181811c9082168061249557607f821691505b6020821081036124b557634e487b7160e01b600052602260045260246000fd5b50919050565b601f821115611e7a57600081815260208120601f850160051c810160208610156124e25750805b601f850160051c820191505b81811015611965578281556001016124ee565b815167ffffffffffffffff81111561251b5761251b611ef4565b61252f816125298454612481565b846124bb565b602080601f831160018114612564576000841561254c5750858301515b600019600386901b1c1916600185901b178555611965565b600085815260208120601f198616915b8281101561259357888601518255948401946001909101908401612574565b50858210156125b15787850151600019600388901b60f8161c191681555b5050505050600190811b01905550565b634e487b7160e01b600052601160045260246000fd5b6000600182016125e9576125e96125c1565b5060010190565b634e487b7160e01b600052603260045260246000fd5b60208082526011908201527010da185c9a5d1e48139bdd08119bdd5b99607a1b604082015260600190565b80820180821115612644576126446125c1565b92915050565b8082028115828204841417612644576126446125c1565b60008261267e57634e487b7160e01b600052601260045260246000fd5b500490565b81810381811115612644576126446125c156fea26469706673582212200c462775570bb5442fd7f12568596be81bd8493431f324214da889a0fa48048e64736f6c63430008110033",
  "linkReferences": {},
  "deployedLinkReferences": {}
}